{
  "address": "0x5F7937ae6118490d1eB6768FE014Cd7BB5c5bF28",
  "abi": [
    {
      "inputs": [],
      "stateMutability": "nonpayable",
      "type": "constructor"
    },
    {
      "anonymous": false,
      "inputs": [
        {
          "indexed": true,
          "internalType": "address",
          "name": "owner",
          "type": "address"
        },
        {
          "indexed": true,
          "internalType": "address",
          "name": "spender",
          "type": "address"
        },
        {
          "indexed": false,
          "internalType": "uint256",
          "name": "value",
          "type": "uint256"
        }
      ],
      "name": "Approval",
      "type": "event"
    },
    {
      "anonymous": false,
      "inputs": [
        {
          "indexed": true,
          "internalType": "address",
          "name": "previousOwner",
          "type": "address"
        },
        {
          "indexed": true,
          "internalType": "address",
          "name": "newOwner",
          "type": "address"
        }
      ],
      "name": "OwnershipTransferred",
      "type": "event"
    },
    {
      "anonymous": false,
      "inputs": [
        {
          "indexed": true,
          "internalType": "address",
          "name": "from",
          "type": "address"
        },
        {
          "indexed": true,
          "internalType": "address",
          "name": "to",
          "type": "address"
        },
        {
          "indexed": false,
          "internalType": "uint256",
          "name": "value",
          "type": "uint256"
        }
      ],
      "name": "Transfer",
      "type": "event"
    },
    {
      "inputs": [
        {
          "internalType": "address",
          "name": "owner",
          "type": "address"
        },
        {
          "internalType": "address",
          "name": "spender",
          "type": "address"
        }
      ],
      "name": "allowance",
      "outputs": [
        {
          "internalType": "uint256",
          "name": "",
          "type": "uint256"
        }
      ],
      "stateMutability": "view",
      "type": "function"
    },
    {
      "inputs": [
        {
          "internalType": "address",
          "name": "spender",
          "type": "address"
        },
        {
          "internalType": "uint256",
          "name": "amount",
          "type": "uint256"
        }
      ],
      "name": "approve",
      "outputs": [
        {
          "internalType": "bool",
          "name": "",
          "type": "bool"
        }
      ],
      "stateMutability": "nonpayable",
      "type": "function"
    },
    {
      "inputs": [
        {
          "internalType": "address",
          "name": "account",
          "type": "address"
        }
      ],
      "name": "balanceOf",
      "outputs": [
        {
          "internalType": "uint256",
          "name": "",
          "type": "uint256"
        }
      ],
      "stateMutability": "view",
      "type": "function"
    },
    {
      "inputs": [
        {
          "internalType": "address",
          "name": "from",
          "type": "address"
        },
        {
          "internalType": "address",
          "name": "to",
          "type": "address"
        },
        {
          "internalType": "uint256",
          "name": "amount",
          "type": "uint256"
        }
      ],
      "name": "calcTaxAndAmt",
      "outputs": [
        {
          "internalType": "uint256",
          "name": "",
          "type": "uint256"
        },
        {
          "internalType": "uint256",
          "name": "",
          "type": "uint256"
        }
      ],
      "stateMutability": "view",
      "type": "function"
    },
    {
      "inputs": [],
      "name": "decimals",
      "outputs": [
        {
          "internalType": "uint8",
          "name": "",
          "type": "uint8"
        }
      ],
      "stateMutability": "view",
      "type": "function"
    },
    {
      "inputs": [
        {
          "internalType": "address",
          "name": "spender",
          "type": "address"
        },
        {
          "internalType": "uint256",
          "name": "subtractedValue",
          "type": "uint256"
        }
      ],
      "name": "decreaseAllowance",
      "outputs": [
        {
          "internalType": "bool",
          "name": "",
          "type": "bool"
        }
      ],
      "stateMutability": "nonpayable",
      "type": "function"
    },
    {
      "inputs": [
        {
          "internalType": "address",
          "name": "spender",
          "type": "address"
        },
        {
          "internalType": "uint256",
          "name": "addedValue",
          "type": "uint256"
        }
      ],
      "name": "increaseAllowance",
      "outputs": [
        {
          "internalType": "bool",
          "name": "",
          "type": "bool"
        }
      ],
      "stateMutability": "nonpayable",
      "type": "function"
    },
    {
      "inputs": [
        {
          "internalType": "address",
          "name": "",
          "type": "address"
        }
      ],
      "name": "isExcluded",
      "outputs": [
        {
          "internalType": "bool",
          "name": "",
          "type": "bool"
        }
      ],
      "stateMutability": "view",
      "type": "function"
    },
    {
      "inputs": [],
      "name": "name",
      "outputs": [
        {
          "internalType": "string",
          "name": "",
          "type": "string"
        }
      ],
      "stateMutability": "view",
      "type": "function"
    },
    {
      "inputs": [],
      "name": "owner",
      "outputs": [
        {
          "internalType": "address",
          "name": "",
          "type": "address"
        }
      ],
      "stateMutability": "view",
      "type": "function"
    },
    {
      "inputs": [],
      "name": "renounceOwnership",
      "outputs": [],
      "stateMutability": "nonpayable",
      "type": "function"
    },
    {
      "inputs": [
        {
          "internalType": "uint256",
          "name": "_taxPerc",
          "type": "uint256"
        }
      ],
      "name": "setTaxPercent",
      "outputs": [],
      "stateMutability": "nonpayable",
      "type": "function"
    },
    {
      "inputs": [
        {
          "internalType": "address",
          "name": "_taxWallet",
          "type": "address"
        }
      ],
      "name": "setTaxWallet",
      "outputs": [],
      "stateMutability": "nonpayable",
      "type": "function"
    },
    {
      "inputs": [],
      "name": "symbol",
      "outputs": [
        {
          "internalType": "string",
          "name": "",
          "type": "string"
        }
      ],
      "stateMutability": "view",
      "type": "function"
    },
    {
      "inputs": [],
      "name": "taxPerc",
      "outputs": [
        {
          "internalType": "uint256",
          "name": "",
          "type": "uint256"
        }
      ],
      "stateMutability": "view",
      "type": "function"
    },
    {
      "inputs": [],
      "name": "taxWallet",
      "outputs": [
        {
          "internalType": "address",
          "name": "",
          "type": "address"
        }
      ],
      "stateMutability": "view",
      "type": "function"
    },
    {
      "inputs": [],
      "name": "totalSupply",
      "outputs": [
        {
          "internalType": "uint256",
          "name": "",
          "type": "uint256"
        }
      ],
      "stateMutability": "view",
      "type": "function"
    },
    {
      "inputs": [
        {
          "internalType": "address",
          "name": "to",
          "type": "address"
        },
        {
          "internalType": "uint256",
          "name": "amount",
          "type": "uint256"
        }
      ],
      "name": "transfer",
      "outputs": [
        {
          "internalType": "bool",
          "name": "",
          "type": "bool"
        }
      ],
      "stateMutability": "nonpayable",
      "type": "function"
    },
    {
      "inputs": [
        {
          "internalType": "address",
          "name": "from",
          "type": "address"
        },
        {
          "internalType": "address",
          "name": "to",
          "type": "address"
        },
        {
          "internalType": "uint256",
          "name": "amount",
          "type": "uint256"
        }
      ],
      "name": "transferFrom",
      "outputs": [
        {
          "internalType": "bool",
          "name": "",
          "type": "bool"
        }
      ],
      "stateMutability": "nonpayable",
      "type": "function"
    },
    {
      "inputs": [
        {
          "internalType": "address",
          "name": "newOwner",
          "type": "address"
        }
      ],
      "name": "transferOwnership",
      "outputs": [],
      "stateMutability": "nonpayable",
      "type": "function"
    },
    {
      "inputs": [
        {
          "internalType": "address[]",
          "name": "adds",
          "type": "address[]"
        }
      ],
      "name": "unWhitelistAddress",
      "outputs": [],
      "stateMutability": "nonpayable",
      "type": "function"
    },
    {
      "inputs": [
        {
          "internalType": "address[]",
          "name": "adds",
          "type": "address[]"
        }
      ],
      "name": "whitelistAddress",
      "outputs": [],
      "stateMutability": "nonpayable",
      "type": "function"
    }
  ],
  "transactionHash": "0x79c6d7f43592b6baf817406a64cea19d24e645a859243312821d4d3acd038d65",
  "args": [],
  "numDeployments": 2,
  "solcInputHash": "ce3751600c0cd3b4ed5fd4b00667eed7",
  "bytecode": "0x60806040526105dc6006553480156200001757600080fd5b506040518060400160405280601381526020017f506c616e6574204c6561677565205374617273000000000000000000000000008152506040518060400160405280600381526020017f504c53000000000000000000000000000000000000000000000000000000000081525081600390805190602001906200009c92919062000412565b508060049080519060200190620000b592919062000412565b505050620000d8620000cc620001b860201b60201c565b620001c060201b60201c565b6200011933620000ed6200028660201b60201c565b600a620000fb91906200065c565b64174876e8006200010d9190620006ad565b6200028f60201b60201c565b33600760006101000a81548173ffffffffffffffffffffffffffffffffffffffff021916908373ffffffffffffffffffffffffffffffffffffffff1602179055506001600860003373ffffffffffffffffffffffffffffffffffffffff1673ffffffffffffffffffffffffffffffffffffffff16815260200190815260200160002060006101000a81548160ff02191690831515021790555062000881565b600033905090565b6000600560009054906101000a900473ffffffffffffffffffffffffffffffffffffffff16905081600560006101000a81548173ffffffffffffffffffffffffffffffffffffffff021916908373ffffffffffffffffffffffffffffffffffffffff1602179055508173ffffffffffffffffffffffffffffffffffffffff168173ffffffffffffffffffffffffffffffffffffffff167f8be0079c531659141344cd1fd0a4f28419497f9722a3daafe3b4186f6b6457e060405160405180910390a35050565b60006012905090565b600073ffffffffffffffffffffffffffffffffffffffff168273ffffffffffffffffffffffffffffffffffffffff16141562000302576040517f08c379a0000000000000000000000000000000000000000000000000000000008152600401620002f9906200076f565b60405180910390fd5b62000316600083836200040860201b60201c565b80600260008282546200032a919062000791565b92505081905550806000808473ffffffffffffffffffffffffffffffffffffffff1673ffffffffffffffffffffffffffffffffffffffff168152602001908152602001600020600082825462000381919062000791565b925050819055508173ffffffffffffffffffffffffffffffffffffffff16600073ffffffffffffffffffffffffffffffffffffffff167fddf252ad1be2c89b69c2b068fc378daa952ba7f163c4a11628f55a4df523b3ef83604051620003e89190620007ff565b60405180910390a362000404600083836200040d60201b60201c565b5050565b505050565b505050565b82805462000420906200084b565b90600052602060002090601f01602090048101928262000444576000855562000490565b82601f106200045f57805160ff191683800117855562000490565b8280016001018555821562000490579182015b828111156200048f57825182559160200191906001019062000472565b5b5090506200049f9190620004a3565b5090565b5b80821115620004be576000816000905550600101620004a4565b5090565b7f4e487b7100000000000000000000000000000000000000000000000000000000600052601160045260246000fd5b60008160011c9050919050565b6000808291508390505b60018511156200055057808604811115620005285762000527620004c2565b5b6001851615620005385780820291505b80810290506200054885620004f1565b945062000508565b94509492505050565b6000826200056b57600190506200063e565b816200057b57600090506200063e565b81600181146200059457600281146200059f57620005d5565b60019150506200063e565b60ff841115620005b457620005b3620004c2565b5b8360020a915084821115620005ce57620005cd620004c2565b5b506200063e565b5060208310610133831016604e8410600b84101617156200060f5782820a905083811115620006095762000608620004c2565b5b6200063e565b6200061e8484846001620004fe565b92509050818404811115620006385762000637620004c2565b5b81810290505b9392505050565b6000819050919050565b600060ff82169050919050565b6000620006698262000645565b915062000676836200064f565b9250620006a57fffffffffffffffffffffffffffffffffffffffffffffffffffffffffffffffff848462000559565b905092915050565b6000620006ba8262000645565b9150620006c78362000645565b9250817fffffffffffffffffffffffffffffffffffffffffffffffffffffffffffffffff0483118215151615620007035762000702620004c2565b5b828202905092915050565b600082825260208201905092915050565b7f45524332303a206d696e7420746f20746865207a65726f206164647265737300600082015250565b600062000757601f836200070e565b915062000764826200071f565b602082019050919050565b600060208201905081810360008301526200078a8162000748565b9050919050565b60006200079e8262000645565b9150620007ab8362000645565b9250827fffffffffffffffffffffffffffffffffffffffffffffffffffffffffffffffff03821115620007e357620007e2620004c2565b5b828201905092915050565b620007f98162000645565b82525050565b6000602082019050620008166000830184620007ee565b92915050565b7f4e487b7100000000000000000000000000000000000000000000000000000000600052602260045260246000fd5b600060028204905060018216806200086457607f821691505b602082108114156200087b576200087a6200081c565b5b50919050565b61222580620008916000396000f3fe608060405234801561001057600080fd5b50600436106101425760003560e01c806395d89b41116100b8578063b3cc35f01161007c578063b3cc35f01461038e578063bde4259c146103ac578063cba0e996146103c8578063dd62ed3e146103f8578063ea414b2814610428578063f2fde38b1461044457610142565b806395d89b41146102c35780639ab83e64146102e1578063a457c2d714610312578063a9059cbb14610342578063b31d61b01461037257610142565b8063313ce5671161010a578063313ce56714610201578063395093511461021f578063611783861461024f57806370a082311461026b578063715018a61461029b5780638da5cb5b146102a557610142565b806306fdde0314610147578063095ea7b31461016557806318160ddd1461019557806323b872dd146101b35780632dc0562d146101e3575b600080fd5b61014f610460565b60405161015c919061166c565b60405180910390f35b61017f600480360381019061017a919061172c565b6104f2565b60405161018c9190611787565b60405180910390f35b61019d610515565b6040516101aa91906117b1565b60405180910390f35b6101cd60048036038101906101c891906117cc565b61051f565b6040516101da9190611787565b60405180910390f35b6101eb610598565b6040516101f8919061182e565b60405180910390f35b6102096105be565b6040516102169190611865565b60405180910390f35b6102396004803603810190610234919061172c565b6105c7565b6040516102469190611787565b60405180910390f35b61026960048036038101906102649190611880565b610671565b005b610285600480360381019061028091906118ad565b61073c565b60405161029291906117b1565b60405180910390f35b6102a3610784565b005b6102ad61080c565b6040516102ba919061182e565b60405180910390f35b6102cb610836565b6040516102d8919061166c565b60405180910390f35b6102fb60048036038101906102f691906117cc565b6108c8565b6040516103099291906118da565b60405180910390f35b61032c6004803603810190610327919061172c565b6109b5565b6040516103399190611787565b60405180910390f35b61035c6004803603810190610357919061172c565b610a9f565b6040516103699190611787565b60405180910390f35b61038c60048036038101906103879190611968565b610b0c565b005b610396610c2d565b6040516103a391906117b1565b60405180910390f35b6103c660048036038101906103c19190611968565b610c33565b005b6103e260048036038101906103dd91906118ad565b610d54565b6040516103ef9190611787565b60405180910390f35b610412600480360381019061040d91906119b5565b610d74565b60405161041f91906117b1565b60405180910390f35b610442600480360381019061043d91906118ad565b610dfb565b005b61045e600480360381019061045991906118ad565b610f2b565b005b60606003805461046f90611a24565b80601f016020809104026020016040519081016040528092919081815260200182805461049b90611a24565b80156104e85780601f106104bd576101008083540402835291602001916104e8565b820191906000526020600020905b8154815290600101906020018083116104cb57829003601f168201915b5050505050905090565b6000806104fd611023565b905061050a81858561102b565b600191505092915050565b6000600254905090565b60008061052a611023565b90506105378582856111f6565b6000806105458787876108c8565b915091506000821461057f5761057e87600760009054906101000a900473ffffffffffffffffffffffffffffffffffffffff1684611282565b5b61058a878783611282565b600193505050509392505050565b600760009054906101000a900473ffffffffffffffffffffffffffffffffffffffff1681565b60006012905090565b6000806105d2611023565b9050610666818585600160008673ffffffffffffffffffffffffffffffffffffffff1673ffffffffffffffffffffffffffffffffffffffff16815260200190815260200160002060008973ffffffffffffffffffffffffffffffffffffffff1673ffffffffffffffffffffffffffffffffffffffff168152602001908152602001600020546106619190611a85565b61102b565b600191505092915050565b610679611023565b73ffffffffffffffffffffffffffffffffffffffff1661069761080c565b73ffffffffffffffffffffffffffffffffffffffff16146106ed576040517f08c379a00000000000000000000000000000000000000000000000000000000081526004016106e490611b27565b60405180910390fd5b6105dc811115610732576040517f08c379a000000000000000000000000000000000000000000000000000000000815260040161072990611b93565b60405180910390fd5b8060068190555050565b60008060008373ffffffffffffffffffffffffffffffffffffffff1673ffffffffffffffffffffffffffffffffffffffff168152602001908152602001600020549050919050565b61078c611023565b73ffffffffffffffffffffffffffffffffffffffff166107aa61080c565b73ffffffffffffffffffffffffffffffffffffffff1614610800576040517f08c379a00000000000000000000000000000000000000000000000000000000081526004016107f790611b27565b60405180910390fd5b61080a6000611503565b565b6000600560009054906101000a900473ffffffffffffffffffffffffffffffffffffffff16905090565b60606004805461084590611a24565b80601f016020809104026020016040519081016040528092919081815260200182805461087190611a24565b80156108be5780601f10610893576101008083540402835291602001916108be565b820191906000526020600020905b8154815290600101906020018083116108a157829003601f168201915b5050505050905090565b6000806000612710600654856108de9190611bb3565b6108e89190611c3c565b9050600860008773ffffffffffffffffffffffffffffffffffffffff1673ffffffffffffffffffffffffffffffffffffffff16815260200190815260200160002060009054906101000a900460ff168061098b5750600860008673ffffffffffffffffffffffffffffffffffffffff1673ffffffffffffffffffffffffffffffffffffffff16815260200190815260200160002060009054906101000a900460ff165b1561099557600090505b600081856109a39190611c6d565b90508181935093505050935093915050565b6000806109c0611023565b90506000600160008373ffffffffffffffffffffffffffffffffffffffff1673ffffffffffffffffffffffffffffffffffffffff16815260200190815260200160002060008673ffffffffffffffffffffffffffffffffffffffff1673ffffffffffffffffffffffffffffffffffffffff16815260200190815260200160002054905083811015610a86576040517f08c379a0000000000000000000000000000000000000000000000000000000008152600401610a7d90611d13565b60405180910390fd5b610a93828686840361102b565b60019250505092915050565b600080610aaa611023565b9050600080610aba8387876108c8565b9150915060008214610af457610af383600760009054906101000a900473ffffffffffffffffffffffffffffffffffffffff1684611282565b5b610aff838783611282565b6001935050505092915050565b610b14611023565b73ffffffffffffffffffffffffffffffffffffffff16610b3261080c565b73ffffffffffffffffffffffffffffffffffffffff1614610b88576040517f08c379a0000000000000000000000000000000000000000000000000000000008152600401610b7f90611b27565b60405180910390fd5b60005b82829050811015610c2857600160086000858585818110610baf57610bae611d33565b5b9050602002016020810190610bc491906118ad565b73ffffffffffffffffffffffffffffffffffffffff1673ffffffffffffffffffffffffffffffffffffffff16815260200190815260200160002060006101000a81548160ff0219169083151502179055508080610c2090611d62565b915050610b8b565b505050565b60065481565b610c3b611023565b73ffffffffffffffffffffffffffffffffffffffff16610c5961080c565b73ffffffffffffffffffffffffffffffffffffffff1614610caf576040517f08c379a0000000000000000000000000000000000000000000000000000000008152600401610ca690611b27565b60405180910390fd5b60005b82829050811015610d4f57600060086000858585818110610cd657610cd5611d33565b5b9050602002016020810190610ceb91906118ad565b73ffffffffffffffffffffffffffffffffffffffff1673ffffffffffffffffffffffffffffffffffffffff16815260200190815260200160002060006101000a81548160ff0219169083151502179055508080610d4790611d62565b915050610cb2565b505050565b60086020528060005260406000206000915054906101000a900460ff1681565b6000600160008473ffffffffffffffffffffffffffffffffffffffff1673ffffffffffffffffffffffffffffffffffffffff16815260200190815260200160002060008373ffffffffffffffffffffffffffffffffffffffff1673ffffffffffffffffffffffffffffffffffffffff16815260200190815260200160002054905092915050565b610e03611023565b73ffffffffffffffffffffffffffffffffffffffff16610e2161080c565b73ffffffffffffffffffffffffffffffffffffffff1614610e77576040517f08c379a0000000000000000000000000000000000000000000000000000000008152600401610e6e90611b27565b60405180910390fd5b600073ffffffffffffffffffffffffffffffffffffffff168173ffffffffffffffffffffffffffffffffffffffff161415610ee7576040517f08c379a0000000000000000000000000000000000000000000000000000000008152600401610ede90611df7565b60405180910390fd5b80600760006101000a81548173ffffffffffffffffffffffffffffffffffffffff021916908373ffffffffffffffffffffffffffffffffffffffff16021790555050565b610f33611023565b73ffffffffffffffffffffffffffffffffffffffff16610f5161080c565b73ffffffffffffffffffffffffffffffffffffffff1614610fa7576040517f08c379a0000000000000000000000000000000000000000000000000000000008152600401610f9e90611b27565b60405180910390fd5b600073ffffffffffffffffffffffffffffffffffffffff168173ffffffffffffffffffffffffffffffffffffffff161415611017576040517f08c379a000000000000000000000000000000000000000000000000000000000815260040161100e90611e89565b60405180910390fd5b61102081611503565b50565b600033905090565b600073ffffffffffffffffffffffffffffffffffffffff168373ffffffffffffffffffffffffffffffffffffffff16141561109b576040517f08c379a000000000000000000000000000000000000000000000000000000000815260040161109290611f1b565b60405180910390fd5b600073ffffffffffffffffffffffffffffffffffffffff168273ffffffffffffffffffffffffffffffffffffffff16141561110b576040517f08c379a000000000000000000000000000000000000000000000000000000000815260040161110290611fad565b60405180910390fd5b80600160008573ffffffffffffffffffffffffffffffffffffffff1673ffffffffffffffffffffffffffffffffffffffff16815260200190815260200160002060008473ffffffffffffffffffffffffffffffffffffffff1673ffffffffffffffffffffffffffffffffffffffff168152602001908152602001600020819055508173ffffffffffffffffffffffffffffffffffffffff168373ffffffffffffffffffffffffffffffffffffffff167f8c5be1e5ebec7d5bd14f71427d1e84f3dd0314c0f7b2291e5b200ac8c7c3b925836040516111e991906117b1565b60405180910390a3505050565b60006112028484610d74565b90507fffffffffffffffffffffffffffffffffffffffffffffffffffffffffffffffff811461127c578181101561126e576040517f08c379a000000000000000000000000000000000000000000000000000000000815260040161126590612019565b60405180910390fd5b61127b848484840361102b565b5b50505050565b600073ffffffffffffffffffffffffffffffffffffffff168373ffffffffffffffffffffffffffffffffffffffff1614156112f2576040517f08c379a00000000000000000000000000000000000000000000000000000000081526004016112e9906120ab565b60405180910390fd5b600073ffffffffffffffffffffffffffffffffffffffff168273ffffffffffffffffffffffffffffffffffffffff161415611362576040517f08c379a00000000000000000000000000000000000000000000000000000000081526004016113599061213d565b60405180910390fd5b61136d8383836115c9565b60008060008573ffffffffffffffffffffffffffffffffffffffff1673ffffffffffffffffffffffffffffffffffffffff168152602001908152602001600020549050818110156113f3576040517f08c379a00000000000000000000000000000000000000000000000000000000081526004016113ea906121cf565b60405180910390fd5b8181036000808673ffffffffffffffffffffffffffffffffffffffff1673ffffffffffffffffffffffffffffffffffffffff16815260200190815260200160002081905550816000808573ffffffffffffffffffffffffffffffffffffffff1673ffffffffffffffffffffffffffffffffffffffff16815260200190815260200160002060008282546114869190611a85565b925050819055508273ffffffffffffffffffffffffffffffffffffffff168473ffffffffffffffffffffffffffffffffffffffff167fddf252ad1be2c89b69c2b068fc378daa952ba7f163c4a11628f55a4df523b3ef846040516114ea91906117b1565b60405180910390a36114fd8484846115ce565b50505050565b6000600560009054906101000a900473ffffffffffffffffffffffffffffffffffffffff16905081600560006101000a81548173ffffffffffffffffffffffffffffffffffffffff021916908373ffffffffffffffffffffffffffffffffffffffff1602179055508173ffffffffffffffffffffffffffffffffffffffff168173ffffffffffffffffffffffffffffffffffffffff167f8be0079c531659141344cd1fd0a4f28419497f9722a3daafe3b4186f6b6457e060405160405180910390a35050565b505050565b505050565b600081519050919050565b600082825260208201905092915050565b60005b8381101561160d5780820151818401526020810190506115f2565b8381111561161c576000848401525b50505050565b6000601f19601f8301169050919050565b600061163e826115d3565b61164881856115de565b93506116588185602086016115ef565b61166181611622565b840191505092915050565b600060208201905081810360008301526116868184611633565b905092915050565b600080fd5b600080fd5b600073ffffffffffffffffffffffffffffffffffffffff82169050919050565b60006116c382611698565b9050919050565b6116d3816116b8565b81146116de57600080fd5b50565b6000813590506116f0816116ca565b92915050565b6000819050919050565b611709816116f6565b811461171457600080fd5b50565b60008135905061172681611700565b92915050565b600080604083850312156117435761174261168e565b5b6000611751858286016116e1565b925050602061176285828601611717565b9150509250929050565b60008115159050919050565b6117818161176c565b82525050565b600060208201905061179c6000830184611778565b92915050565b6117ab816116f6565b82525050565b60006020820190506117c660008301846117a2565b92915050565b6000806000606084860312156117e5576117e461168e565b5b60006117f3868287016116e1565b9350506020611804868287016116e1565b925050604061181586828701611717565b9150509250925092565b611828816116b8565b82525050565b6000602082019050611843600083018461181f565b92915050565b600060ff82169050919050565b61185f81611849565b82525050565b600060208201905061187a6000830184611856565b92915050565b6000602082840312156118965761189561168e565b5b60006118a484828501611717565b91505092915050565b6000602082840312156118c3576118c261168e565b5b60006118d1848285016116e1565b91505092915050565b60006040820190506118ef60008301856117a2565b6118fc60208301846117a2565b9392505050565b600080fd5b600080fd5b600080fd5b60008083601f84011261192857611927611903565b5b8235905067ffffffffffffffff81111561194557611944611908565b5b6020830191508360208202830111156119615761196061190d565b5b9250929050565b6000806020838503121561197f5761197e61168e565b5b600083013567ffffffffffffffff81111561199d5761199c611693565b5b6119a985828601611912565b92509250509250929050565b600080604083850312156119cc576119cb61168e565b5b60006119da858286016116e1565b92505060206119eb858286016116e1565b9150509250929050565b7f4e487b7100000000000000000000000000000000000000000000000000000000600052602260045260246000fd5b60006002820490506001821680611a3c57607f821691505b60208210811415611a5057611a4f6119f5565b5b50919050565b7f4e487b7100000000000000000000000000000000000000000000000000000000600052601160045260246000fd5b6000611a90826116f6565b9150611a9b836116f6565b9250827fffffffffffffffffffffffffffffffffffffffffffffffffffffffffffffffff03821115611ad057611acf611a56565b5b828201905092915050565b7f4f776e61626c653a2063616c6c6572206973206e6f7420746865206f776e6572600082015250565b6000611b116020836115de565b9150611b1c82611adb565b602082019050919050565b60006020820190508181036000830152611b4081611b04565b9050919050565b7f546178207468726573686f6c6420657863656564656400000000000000000000600082015250565b6000611b7d6016836115de565b9150611b8882611b47565b602082019050919050565b60006020820190508181036000830152611bac81611b70565b9050919050565b6000611bbe826116f6565b9150611bc9836116f6565b9250817fffffffffffffffffffffffffffffffffffffffffffffffffffffffffffffffff0483118215151615611c0257611c01611a56565b5b828202905092915050565b7f4e487b7100000000000000000000000000000000000000000000000000000000600052601260045260246000fd5b6000611c47826116f6565b9150611c52836116f6565b925082611c6257611c61611c0d565b5b828204905092915050565b6000611c78826116f6565b9150611c83836116f6565b925082821015611c9657611c95611a56565b5b828203905092915050565b7f45524332303a2064656372656173656420616c6c6f77616e63652062656c6f7760008201527f207a65726f000000000000000000000000000000000000000000000000000000602082015250565b6000611cfd6025836115de565b9150611d0882611ca1565b604082019050919050565b60006020820190508181036000830152611d2c81611cf0565b9050919050565b7f4e487b7100000000000000000000000000000000000000000000000000000000600052603260045260246000fd5b6000611d6d826116f6565b91507fffffffffffffffffffffffffffffffffffffffffffffffffffffffffffffffff821415611da057611d9f611a56565b5b600182019050919050565b7f496e76616c6964207461782077616c6c65740000000000000000000000000000600082015250565b6000611de16012836115de565b9150611dec82611dab565b602082019050919050565b60006020820190508181036000830152611e1081611dd4565b9050919050565b7f4f776e61626c653a206e6577206f776e657220697320746865207a65726f206160008201527f6464726573730000000000000000000000000000000000000000000000000000602082015250565b6000611e736026836115de565b9150611e7e82611e17565b604082019050919050565b60006020820190508181036000830152611ea281611e66565b9050919050565b7f45524332303a20617070726f76652066726f6d20746865207a65726f2061646460008201527f7265737300000000000000000000000000000000000000000000000000000000602082015250565b6000611f056024836115de565b9150611f1082611ea9565b604082019050919050565b60006020820190508181036000830152611f3481611ef8565b9050919050565b7f45524332303a20617070726f766520746f20746865207a65726f20616464726560008201527f7373000000000000000000000000000000000000000000000000000000000000602082015250565b6000611f976022836115de565b9150611fa282611f3b565b604082019050919050565b60006020820190508181036000830152611fc681611f8a565b9050919050565b7f45524332303a20696e73756666696369656e7420616c6c6f77616e6365000000600082015250565b6000612003601d836115de565b915061200e82611fcd565b602082019050919050565b6000602082019050818103600083015261203281611ff6565b9050919050565b7f45524332303a207472616e736665722066726f6d20746865207a65726f20616460008201527f6472657373000000000000000000000000000000000000000000000000000000602082015250565b60006120956025836115de565b91506120a082612039565b604082019050919050565b600060208201905081810360008301526120c481612088565b9050919050565b7f45524332303a207472616e7366657220746f20746865207a65726f206164647260008201527f6573730000000000000000000000000000000000000000000000000000000000602082015250565b60006121276023836115de565b9150612132826120cb565b604082019050919050565b600060208201905081810360008301526121568161211a565b9050919050565b7f45524332303a207472616e7366657220616d6f756e742065786365656473206260008201527f616c616e63650000000000000000000000000000000000000000000000000000602082015250565b60006121b96026836115de565b91506121c48261215d565b604082019050919050565b600060208201905081810360008301526121e8816121ac565b905091905056fea26469706673582212207b8dfefb2caf82ae98697d0faaf55f93bd0143b04fb89d731b2e24536a5ff0ae64736f6c63430008090033",
  "devdoc": {
    "kind": "dev",
    "methods": {
      "allowance(address,address)": {
        "details": "See {IERC20-allowance}."
      },
      "approve(address,uint256)": {
        "details": "See {IERC20-approve}. NOTE: If `amount` is the maximum `uint256`, the allowance is not updated on `transferFrom`. This is semantically equivalent to an infinite approval. Requirements: - `spender` cannot be the zero address."
      },
      "balanceOf(address)": {
        "details": "See {IERC20-balanceOf}."
      },
      "decimals()": {
        "details": "Returns the number of decimals used to get its user representation. For example, if `decimals` equals `2`, a balance of `505` tokens should be displayed to a user as `5.05` (`505 / 10 ** 2`). Tokens usually opt for a value of 18, imitating the relationship between Ether and Wei. This is the value {ERC20} uses, unless this function is overridden; NOTE: This information is only used for _display_ purposes: it in no way affects any of the arithmetic of the contract, including {IERC20-balanceOf} and {IERC20-transfer}."
      },
      "decreaseAllowance(address,uint256)": {
        "details": "Atomically decreases the allowance granted to `spender` by the caller. This is an alternative to {approve} that can be used as a mitigation for problems described in {IERC20-approve}. Emits an {Approval} event indicating the updated allowance. Requirements: - `spender` cannot be the zero address. - `spender` must have allowance for the caller of at least `subtractedValue`."
      },
      "increaseAllowance(address,uint256)": {
        "details": "Atomically increases the allowance granted to `spender` by the caller. This is an alternative to {approve} that can be used as a mitigation for problems described in {IERC20-approve}. Emits an {Approval} event indicating the updated allowance. Requirements: - `spender` cannot be the zero address."
      },
      "name()": {
        "details": "Returns the name of the token."
      },
      "owner()": {
        "details": "Returns the address of the current owner."
      },
      "renounceOwnership()": {
        "details": "Leaves the contract without owner. It will not be possible to call `onlyOwner` functions anymore. Can only be called by the current owner. NOTE: Renouncing ownership will leave the contract without an owner, thereby removing any functionality that is only available to the owner."
      },
      "symbol()": {
        "details": "Returns the symbol of the token, usually a shorter version of the name."
      },
      "totalSupply()": {
        "details": "See {IERC20-totalSupply}."
      },
      "transfer(address,uint256)": {
        "details": "See {IERC20-transfer}. Requirements: - `to` cannot be the zero address. - the caller must have a balance of at least `amount`."
      },
      "transferFrom(address,address,uint256)": {
        "details": "See {IERC20-transferFrom}. Emits an {Approval} event indicating the updated allowance. This is not required by the EIP. See the note at the beginning of {ERC20}. NOTE: Does not update the allowance if the current allowance is the maximum `uint256`. Requirements: - `from` and `to` cannot be the zero address. - `from` must have a balance of at least `amount`. - the caller must have allowance for ``from``'s tokens of at least `amount`."
      },
      "transferOwnership(address)": {
        "details": "Transfers ownership of the contract to a new account (`newOwner`). Can only be called by the current owner."
      }
    },
    "version": 1
  },
  "userdoc": {
    "kind": "user",
    "methods": {},
    "version": 1
  },
  "storageLayout": {
    "storage": [
      {
        "astId": 120,
        "contract": "contracts/PLS.sol:PLS",
        "label": "_balances",
        "offset": 0,
        "slot": "0",
        "type": "t_mapping(t_address,t_uint256)"
      },
      {
        "astId": 126,
        "contract": "contracts/PLS.sol:PLS",
        "label": "_allowances",
        "offset": 0,
        "slot": "1",
        "type": "t_mapping(t_address,t_mapping(t_address,t_uint256))"
      },
      {
        "astId": 128,
        "contract": "contracts/PLS.sol:PLS",
        "label": "_totalSupply",
        "offset": 0,
        "slot": "2",
        "type": "t_uint256"
      },
      {
        "astId": 130,
        "contract": "contracts/PLS.sol:PLS",
        "label": "_name",
        "offset": 0,
        "slot": "3",
        "type": "t_string_storage"
      },
      {
        "astId": 132,
        "contract": "contracts/PLS.sol:PLS",
        "label": "_symbol",
        "offset": 0,
        "slot": "4",
        "type": "t_string_storage"
      },
      {
        "astId": 7,
        "contract": "contracts/PLS.sol:PLS",
        "label": "_owner",
        "offset": 0,
        "slot": "5",
        "type": "t_address"
      },
      {
        "astId": 1347,
        "contract": "contracts/PLS.sol:PLS",
        "label": "taxPerc",
        "offset": 0,
        "slot": "6",
        "type": "t_uint256"
      },
      {
        "astId": 1349,
        "contract": "contracts/PLS.sol:PLS",
        "label": "taxWallet",
        "offset": 0,
        "slot": "7",
        "type": "t_address"
      },
      {
        "astId": 1353,
        "contract": "contracts/PLS.sol:PLS",
        "label": "isExcluded",
        "offset": 0,
        "slot": "8",
        "type": "t_mapping(t_address,t_bool)"
      }
    ],
    "types": {
      "t_address": {
        "encoding": "inplace",
        "label": "address",
        "numberOfBytes": "20"
      },
      "t_bool": {
        "encoding": "inplace",
        "label": "bool",
        "numberOfBytes": "1"
      },
      "t_mapping(t_address,t_bool)": {
        "encoding": "mapping",
        "key": "t_address",
        "label": "mapping(address => bool)",
        "numberOfBytes": "32",
        "value": "t_bool"
      },
      "t_mapping(t_address,t_mapping(t_address,t_uint256))": {
        "encoding": "mapping",
        "key": "t_address",
        "label": "mapping(address => mapping(address => uint256))",
        "numberOfBytes": "32",
        "value": "t_mapping(t_address,t_uint256)"
      },
      "t_mapping(t_address,t_uint256)": {
        "encoding": "mapping",
        "key": "t_address",
        "label": "mapping(address => uint256)",
        "numberOfBytes": "32",
        "value": "t_uint256"
      },
      "t_string_storage": {
        "encoding": "bytes",
        "label": "string",
        "numberOfBytes": "32"
      },
      "t_uint256": {
        "encoding": "inplace",
        "label": "uint256",
        "numberOfBytes": "32"
      }
    }
  }
}