{
  "address": "0x62E60A2561d64c467D5dB0d1a0e68A8F15EB5626",
  "abi": [
    {
      "inputs": [
        {
          "internalType": "address",
          "name": "_bonusToken",
          "type": "address"
        },
        {
          "internalType": "uint256",
          "name": "_maxBonus",
          "type": "uint256"
        }
      ],
      "stateMutability": "nonpayable",
      "type": "constructor"
    },
    {
      "anonymous": false,
      "inputs": [
        {
          "indexed": true,
          "internalType": "address",
          "name": "previousOwner",
          "type": "address"
        },
        {
          "indexed": true,
          "internalType": "address",
          "name": "newOwner",
          "type": "address"
        }
      ],
      "name": "OwnershipTransferred",
      "type": "event"
    },
    {
      "inputs": [
        {
          "internalType": "address[]",
          "name": "accs",
          "type": "address[]"
        },
        {
          "internalType": "uint256[]",
          "name": "bonus",
          "type": "uint256[]"
        }
      ],
      "name": "addBonusForUsers",
      "outputs": [],
      "stateMutability": "nonpayable",
      "type": "function"
    },
    {
      "inputs": [],
      "name": "bonusToken",
      "outputs": [
        {
          "internalType": "contract ERC20",
          "name": "",
          "type": "address"
        }
      ],
      "stateMutability": "view",
      "type": "function"
    },
    {
      "inputs": [],
      "name": "claimBonus",
      "outputs": [],
      "stateMutability": "nonpayable",
      "type": "function"
    },
    {
      "inputs": [],
      "name": "maxBonus",
      "outputs": [
        {
          "internalType": "uint256",
          "name": "",
          "type": "uint256"
        }
      ],
      "stateMutability": "view",
      "type": "function"
    },
    {
      "inputs": [],
      "name": "owner",
      "outputs": [
        {
          "internalType": "address",
          "name": "",
          "type": "address"
        }
      ],
      "stateMutability": "view",
      "type": "function"
    },
    {
      "inputs": [],
      "name": "plsGame",
      "outputs": [
        {
          "internalType": "contract IPLSGame",
          "name": "",
          "type": "address"
        }
      ],
      "stateMutability": "view",
      "type": "function"
    },
    {
      "inputs": [],
      "name": "renounceOwnership",
      "outputs": [],
      "stateMutability": "nonpayable",
      "type": "function"
    },
    {
      "inputs": [
        {
          "internalType": "uint256",
          "name": "_maxBonus",
          "type": "uint256"
        }
      ],
      "name": "setMaxBonus",
      "outputs": [],
      "stateMutability": "nonpayable",
      "type": "function"
    },
    {
      "inputs": [
        {
          "internalType": "address",
          "name": "_plsGameAdd",
          "type": "address"
        }
      ],
      "name": "setPlsGameAdd",
      "outputs": [],
      "stateMutability": "nonpayable",
      "type": "function"
    },
    {
      "inputs": [],
      "name": "tokenDebt",
      "outputs": [
        {
          "internalType": "uint256",
          "name": "",
          "type": "uint256"
        }
      ],
      "stateMutability": "view",
      "type": "function"
    },
    {
      "inputs": [
        {
          "internalType": "address",
          "name": "newOwner",
          "type": "address"
        }
      ],
      "name": "transferOwnership",
      "outputs": [],
      "stateMutability": "nonpayable",
      "type": "function"
    },
    {
      "inputs": [
        {
          "internalType": "address",
          "name": "",
          "type": "address"
        }
      ],
      "name": "userBonus",
      "outputs": [
        {
          "internalType": "uint256",
          "name": "",
          "type": "uint256"
        }
      ],
      "stateMutability": "view",
      "type": "function"
    },
    {
      "inputs": [
        {
          "internalType": "address",
          "name": "token",
          "type": "address"
        }
      ],
      "name": "withdrawAllToken",
      "outputs": [],
      "stateMutability": "nonpayable",
      "type": "function"
    },
    {
      "inputs": [
        {
          "internalType": "address",
          "name": "token",
          "type": "address"
        },
        {
          "internalType": "uint256",
          "name": "amt",
          "type": "uint256"
        }
      ],
      "name": "withdrawToken",
      "outputs": [],
      "stateMutability": "nonpayable",
      "type": "function"
    }
  ],
  "transactionHash": "0xbaa860e083d64402af6d65e4af1d54a6117d4a5774d0830f34055e8d3e5ae42f",
  "args": [
    "0x5F7937ae6118490d1eB6768FE014Cd7BB5c5bF28",
    "100"
  ],
  "numDeployments": 2,
  "solcInputHash": "ce3751600c0cd3b4ed5fd4b00667eed7",
  "bytecode": "0x60a06040523480156200001157600080fd5b5060405162001e2638038062001e268339818101604052810190620000379190620002d7565b620000576200004b620000a460201b60201c565b620000ac60201b60201c565b8173ffffffffffffffffffffffffffffffffffffffff1660808173ffffffffffffffffffffffffffffffffffffffff16815250506200009c816200017060201b60201c565b5050620003a1565b600033905090565b60008060009054906101000a900473ffffffffffffffffffffffffffffffffffffffff169050816000806101000a81548173ffffffffffffffffffffffffffffffffffffffff021916908373ffffffffffffffffffffffffffffffffffffffff1602179055508173ffffffffffffffffffffffffffffffffffffffff168173ffffffffffffffffffffffffffffffffffffffff167f8be0079c531659141344cd1fd0a4f28419497f9722a3daafe3b4186f6b6457e060405160405180910390a35050565b62000180620000a460201b60201c565b73ffffffffffffffffffffffffffffffffffffffff16620001a66200020960201b60201c565b73ffffffffffffffffffffffffffffffffffffffff1614620001ff576040517f08c379a0000000000000000000000000000000000000000000000000000000008152600401620001f6906200037f565b60405180910390fd5b8060018190555050565b60008060009054906101000a900473ffffffffffffffffffffffffffffffffffffffff16905090565b600080fd5b600073ffffffffffffffffffffffffffffffffffffffff82169050919050565b6000620002648262000237565b9050919050565b620002768162000257565b81146200028257600080fd5b50565b60008151905062000296816200026b565b92915050565b6000819050919050565b620002b1816200029c565b8114620002bd57600080fd5b50565b600081519050620002d181620002a6565b92915050565b60008060408385031215620002f157620002f062000232565b5b6000620003018582860162000285565b92505060206200031485828601620002c0565b9150509250929050565b600082825260208201905092915050565b7f4f776e61626c653a2063616c6c6572206973206e6f7420746865206f776e6572600082015250565b6000620003676020836200031e565b915062000374826200032f565b602082019050919050565b600060208201905081810360008301526200039a8162000358565b9050919050565b608051611a62620003c46000396000818161052901526106990152611a626000f3fe608060405234801561001057600080fd5b50600436106100ea5760003560e01c80635610e5c41161008c5780638da5cb5b116100665780638da5cb5b146101ff5780639e281a981461021d578063ae4dd0fc14610239578063f2fde38b14610255576100ea565b80635610e5c4146101bb578063715018a6146101d957806373ffb854146101e3576100ea565b80633eed0b14116100c85780633eed0b141461015957806341d4a1ab14610175578063506353941461019357806354c5b6961461019d576100ea565b8063158cb274146100ef57806315d2a7b91461010d5780631d94f3e91461013d575b600080fd5b6100f7610271565b6040516101049190610fb5565b60405180910390f35b61012760048036038101906101229190611038565b610277565b6040516101349190610fb5565b60405180910390f35b61015760048036038101906101529190611120565b61028f565b005b610173600480360381019061016e91906111cd565b6104a1565b005b61017d610527565b60405161018a9190611259565b60405180910390f35b61019b61054b565b005b6101a561076f565b6040516101b29190610fb5565b60405180910390f35b6101c3610775565b6040516101d09190611295565b60405180910390f35b6101e161079b565b005b6101fd60048036038101906101f89190611038565b610823565b005b6102076108e3565b60405161021491906112bf565b60405180910390f35b610237600480360381019061023291906112da565b61090c565b005b610253600480360381019061024e9190611038565b6109be565b005b61026f600480360381019061026a9190611038565b610ad5565b005b60025481565b60046020528060005260406000206000915090505481565b610297610bcd565b73ffffffffffffffffffffffffffffffffffffffff166102b56108e3565b73ffffffffffffffffffffffffffffffffffffffff161461030b576040517f08c379a000000000000000000000000000000000000000000000000000000000815260040161030290611377565b60405180910390fd5b818190508484905014610353576040517f08c379a000000000000000000000000000000000000000000000000000000000815260040161034a906113e3565b60405180910390fd5b60005b8484905081101561049a5760015483838381811061037757610376611403565b5b9050602002013511156103bf576040517f08c379a00000000000000000000000000000000000000000000000000000000081526004016103b6906114a4565b60405180910390fd5b8282828181106103d2576103d1611403565b5b90506020020135600460008787858181106103f0576103ef611403565b5b90506020020160208101906104059190611038565b73ffffffffffffffffffffffffffffffffffffffff1673ffffffffffffffffffffffffffffffffffffffff168152602001908152602001600020600082825461044e91906114f3565b9250508190555082828281811061046857610467611403565b5b905060200201356002600082825461048091906114f3565b92505081905550808061049290611549565b915050610356565b5050505050565b6104a9610bcd565b73ffffffffffffffffffffffffffffffffffffffff166104c76108e3565b73ffffffffffffffffffffffffffffffffffffffff161461051d576040517f08c379a000000000000000000000000000000000000000000000000000000000815260040161051490611377565b60405180910390fd5b8060018190555050565b7f000000000000000000000000000000000000000000000000000000000000000081565b6000600460003373ffffffffffffffffffffffffffffffffffffffff1673ffffffffffffffffffffffffffffffffffffffff1681526020019081526020016000205414156105ce576040517f08c379a00000000000000000000000000000000000000000000000000000000081526004016105c5906115de565b60405180910390fd5b6000600460003373ffffffffffffffffffffffffffffffffffffffff1673ffffffffffffffffffffffffffffffffffffffff1681526020019081526020016000205490506000600460003373ffffffffffffffffffffffffffffffffffffffff1673ffffffffffffffffffffffffffffffffffffffff16815260200190815260200160002081905550806002600082825461066991906115fe565b925050819055506106dd600360009054906101000a900473ffffffffffffffffffffffffffffffffffffffff16827f000000000000000000000000000000000000000000000000000000000000000073ffffffffffffffffffffffffffffffffffffffff16610bd59092919063ffffffff16565b600360009054906101000a900473ffffffffffffffffffffffffffffffffffffffff1673ffffffffffffffffffffffffffffffffffffffff1663fca3fa7f33836040518363ffffffff1660e01b815260040161073a929190611632565b600060405180830381600087803b15801561075457600080fd5b505af1158015610768573d6000803e3d6000fd5b5050505050565b60015481565b600360009054906101000a900473ffffffffffffffffffffffffffffffffffffffff1681565b6107a3610bcd565b73ffffffffffffffffffffffffffffffffffffffff166107c16108e3565b73ffffffffffffffffffffffffffffffffffffffff1614610817576040517f08c379a000000000000000000000000000000000000000000000000000000000815260040161080e90611377565b60405180910390fd5b6108216000610c5b565b565b61082b610bcd565b73ffffffffffffffffffffffffffffffffffffffff166108496108e3565b73ffffffffffffffffffffffffffffffffffffffff161461089f576040517f08c379a000000000000000000000000000000000000000000000000000000000815260040161089690611377565b60405180910390fd5b80600360006101000a81548173ffffffffffffffffffffffffffffffffffffffff021916908373ffffffffffffffffffffffffffffffffffffffff16021790555050565b60008060009054906101000a900473ffffffffffffffffffffffffffffffffffffffff16905090565b610914610bcd565b73ffffffffffffffffffffffffffffffffffffffff166109326108e3565b73ffffffffffffffffffffffffffffffffffffffff1614610988576040517f08c379a000000000000000000000000000000000000000000000000000000000815260040161097f90611377565b60405180910390fd5b6109ba6109936108e3565b828473ffffffffffffffffffffffffffffffffffffffff16610bd59092919063ffffffff16565b5050565b6109c6610bcd565b73ffffffffffffffffffffffffffffffffffffffff166109e46108e3565b73ffffffffffffffffffffffffffffffffffffffff1614610a3a576040517f08c379a0000000000000000000000000000000000000000000000000000000008152600401610a3190611377565b60405180910390fd5b60008173ffffffffffffffffffffffffffffffffffffffff166370a08231306040518263ffffffff1660e01b8152600401610a7591906112bf565b60206040518083038186803b158015610a8d57600080fd5b505afa158015610aa1573d6000803e3d6000fd5b505050506040513d601f19601f82011682018060405250810190610ac59190611670565b9050610ad1828261090c565b5050565b610add610bcd565b73ffffffffffffffffffffffffffffffffffffffff16610afb6108e3565b73ffffffffffffffffffffffffffffffffffffffff1614610b51576040517f08c379a0000000000000000000000000000000000000000000000000000000008152600401610b4890611377565b60405180910390fd5b600073ffffffffffffffffffffffffffffffffffffffff168173ffffffffffffffffffffffffffffffffffffffff161415610bc1576040517f08c379a0000000000000000000000000000000000000000000000000000000008152600401610bb89061170f565b60405180910390fd5b610bca81610c5b565b50565b600033905090565b610c568363a9059cbb60e01b8484604051602401610bf4929190611632565b604051602081830303815290604052907bffffffffffffffffffffffffffffffffffffffffffffffffffffffff19166020820180517bffffffffffffffffffffffffffffffffffffffffffffffffffffffff8381831617835250505050610d1f565b505050565b60008060009054906101000a900473ffffffffffffffffffffffffffffffffffffffff169050816000806101000a81548173ffffffffffffffffffffffffffffffffffffffff021916908373ffffffffffffffffffffffffffffffffffffffff1602179055508173ffffffffffffffffffffffffffffffffffffffff168173ffffffffffffffffffffffffffffffffffffffff167f8be0079c531659141344cd1fd0a4f28419497f9722a3daafe3b4186f6b6457e060405160405180910390a35050565b6000610d81826040518060400160405280602081526020017f5361666545524332303a206c6f772d6c6576656c2063616c6c206661696c65648152508573ffffffffffffffffffffffffffffffffffffffff16610de69092919063ffffffff16565b9050600081511115610de15780806020019051810190610da19190611767565b610de0576040517f08c379a0000000000000000000000000000000000000000000000000000000008152600401610dd790611806565b60405180910390fd5b5b505050565b6060610df58484600085610dfe565b90509392505050565b606082471015610e43576040517f08c379a0000000000000000000000000000000000000000000000000000000008152600401610e3a90611898565b60405180910390fd5b610e4c85610f12565b610e8b576040517f08c379a0000000000000000000000000000000000000000000000000000000008152600401610e8290611904565b60405180910390fd5b6000808673ffffffffffffffffffffffffffffffffffffffff168587604051610eb4919061199e565b60006040518083038185875af1925050503d8060008114610ef1576040519150601f19603f3d011682016040523d82523d6000602084013e610ef6565b606091505b5091509150610f06828286610f35565b92505050949350505050565b6000808273ffffffffffffffffffffffffffffffffffffffff163b119050919050565b60608315610f4557829050610f95565b600083511115610f585782518084602001fd5b816040517f08c379a0000000000000000000000000000000000000000000000000000000008152600401610f8c9190611a0a565b60405180910390fd5b9392505050565b6000819050919050565b610faf81610f9c565b82525050565b6000602082019050610fca6000830184610fa6565b92915050565b600080fd5b600080fd5b600073ffffffffffffffffffffffffffffffffffffffff82169050919050565b600061100582610fda565b9050919050565b61101581610ffa565b811461102057600080fd5b50565b6000813590506110328161100c565b92915050565b60006020828403121561104e5761104d610fd0565b5b600061105c84828501611023565b91505092915050565b600080fd5b600080fd5b600080fd5b60008083601f84011261108a57611089611065565b5b8235905067ffffffffffffffff8111156110a7576110a661106a565b5b6020830191508360208202830111156110c3576110c261106f565b5b9250929050565b60008083601f8401126110e0576110df611065565b5b8235905067ffffffffffffffff8111156110fd576110fc61106a565b5b6020830191508360208202830111156111195761111861106f565b5b9250929050565b6000806000806040858703121561113a57611139610fd0565b5b600085013567ffffffffffffffff81111561115857611157610fd5565b5b61116487828801611074565b9450945050602085013567ffffffffffffffff81111561118757611186610fd5565b5b611193878288016110ca565b925092505092959194509250565b6111aa81610f9c565b81146111b557600080fd5b50565b6000813590506111c7816111a1565b92915050565b6000602082840312156111e3576111e2610fd0565b5b60006111f1848285016111b8565b91505092915050565b6000819050919050565b600061121f61121a61121584610fda565b6111fa565b610fda565b9050919050565b600061123182611204565b9050919050565b600061124382611226565b9050919050565b61125381611238565b82525050565b600060208201905061126e600083018461124a565b92915050565b600061127f82611226565b9050919050565b61128f81611274565b82525050565b60006020820190506112aa6000830184611286565b92915050565b6112b981610ffa565b82525050565b60006020820190506112d460008301846112b0565b92915050565b600080604083850312156112f1576112f0610fd0565b5b60006112ff85828601611023565b9250506020611310858286016111b8565b9150509250929050565b600082825260208201905092915050565b7f4f776e61626c653a2063616c6c6572206973206e6f7420746865206f776e6572600082015250565b600061136160208361131a565b915061136c8261132b565b602082019050919050565b6000602082019050818103600083015261139081611354565b9050919050565b7f496e76616c696420446174613a20556e657175616c2061727261797300000000600082015250565b60006113cd601c8361131a565b91506113d882611397565b602082019050919050565b600060208201905081810360008301526113fc816113c0565b9050919050565b7f4e487b7100000000000000000000000000000000000000000000000000000000600052603260045260246000fd5b7f426f6e757320616d6f756e742065786365656473206d6178207065726d69737360008201527f61626c6520626f6e757300000000000000000000000000000000000000000000602082015250565b600061148e602a8361131a565b915061149982611432565b604082019050919050565b600060208201905081810360008301526114bd81611481565b9050919050565b7f4e487b7100000000000000000000000000000000000000000000000000000000600052601160045260246000fd5b60006114fe82610f9c565b915061150983610f9c565b9250827fffffffffffffffffffffffffffffffffffffffffffffffffffffffffffffffff0382111561153e5761153d6114c4565b5b828201905092915050565b600061155482610f9c565b91507fffffffffffffffffffffffffffffffffffffffffffffffffffffffffffffffff821415611587576115866114c4565b5b600182019050919050565b7f4e6f20626f6e757320666f722075736572000000000000000000000000000000600082015250565b60006115c860118361131a565b91506115d382611592565b602082019050919050565b600060208201905081810360008301526115f7816115bb565b9050919050565b600061160982610f9c565b915061161483610f9c565b925082821015611627576116266114c4565b5b828203905092915050565b600060408201905061164760008301856112b0565b6116546020830184610fa6565b9392505050565b60008151905061166a816111a1565b92915050565b60006020828403121561168657611685610fd0565b5b60006116948482850161165b565b91505092915050565b7f4f776e61626c653a206e6577206f776e657220697320746865207a65726f206160008201527f6464726573730000000000000000000000000000000000000000000000000000602082015250565b60006116f960268361131a565b91506117048261169d565b604082019050919050565b60006020820190508181036000830152611728816116ec565b9050919050565b60008115159050919050565b6117448161172f565b811461174f57600080fd5b50565b6000815190506117618161173b565b92915050565b60006020828403121561177d5761177c610fd0565b5b600061178b84828501611752565b91505092915050565b7f5361666545524332303a204552433230206f7065726174696f6e20646964206e60008201527f6f74207375636365656400000000000000000000000000000000000000000000602082015250565b60006117f0602a8361131a565b91506117fb82611794565b604082019050919050565b6000602082019050818103600083015261181f816117e3565b9050919050565b7f416464726573733a20696e73756666696369656e742062616c616e636520666f60008201527f722063616c6c0000000000000000000000000000000000000000000000000000602082015250565b600061188260268361131a565b915061188d82611826565b604082019050919050565b600060208201905081810360008301526118b181611875565b9050919050565b7f416464726573733a2063616c6c20746f206e6f6e2d636f6e7472616374000000600082015250565b60006118ee601d8361131a565b91506118f9826118b8565b602082019050919050565b6000602082019050818103600083015261191d816118e1565b9050919050565b600081519050919050565b600081905092915050565b60005b8381101561195857808201518184015260208101905061193d565b83811115611967576000848401525b50505050565b600061197882611924565b611982818561192f565b935061199281856020860161193a565b80840191505092915050565b60006119aa828461196d565b915081905092915050565b600081519050919050565b6000601f19601f8301169050919050565b60006119dc826119b5565b6119e6818561131a565b93506119f681856020860161193a565b6119ff816119c0565b840191505092915050565b60006020820190508181036000830152611a2481846119d1565b90509291505056fea264697066735822122000bb49dec493a1ab3d7d6f2f1deb34e97ea1478886af410c64a5114dd6868efb64736f6c63430008090033",
  "devdoc": {
    "kind": "dev",
    "methods": {
      "owner()": {
        "details": "Returns the address of the current owner."
      },
      "renounceOwnership()": {
        "details": "Leaves the contract without owner. It will not be possible to call `onlyOwner` functions anymore. Can only be called by the current owner. NOTE: Renouncing ownership will leave the contract without an owner, thereby removing any functionality that is only available to the owner."
      },
      "transferOwnership(address)": {
        "details": "Transfers ownership of the contract to a new account (`newOwner`). Can only be called by the current owner."
      }
    },
    "version": 1
  },
  "userdoc": {
    "kind": "user",
    "methods": {},
    "version": 1
  },
  "storageLayout": {
    "storage": [
      {
        "astId": 7,
        "contract": "contracts/PLS_Bonus.sol:PLS_Bonus",
        "label": "_owner",
        "offset": 0,
        "slot": "0",
        "type": "t_address"
      },
      {
        "astId": 2117,
        "contract": "contracts/PLS_Bonus.sol:PLS_Bonus",
        "label": "maxBonus",
        "offset": 0,
        "slot": "1",
        "type": "t_uint256"
      },
      {
        "astId": 2119,
        "contract": "contracts/PLS_Bonus.sol:PLS_Bonus",
        "label": "tokenDebt",
        "offset": 0,
        "slot": "2",
        "type": "t_uint256"
      },
      {
        "astId": 2122,
        "contract": "contracts/PLS_Bonus.sol:PLS_Bonus",
        "label": "plsGame",
        "offset": 0,
        "slot": "3",
        "type": "t_contract(IPLSGame)2106"
      },
      {
        "astId": 2126,
        "contract": "contracts/PLS_Bonus.sol:PLS_Bonus",
        "label": "userBonus",
        "offset": 0,
        "slot": "4",
        "type": "t_mapping(t_address,t_uint256)"
      }
    ],
    "types": {
      "t_address": {
        "encoding": "inplace",
        "label": "address",
        "numberOfBytes": "20"
      },
      "t_contract(IPLSGame)2106": {
        "encoding": "inplace",
        "label": "contract IPLSGame",
        "numberOfBytes": "20"
      },
      "t_mapping(t_address,t_uint256)": {
        "encoding": "mapping",
        "key": "t_address",
        "label": "mapping(address => uint256)",
        "numberOfBytes": "32",
        "value": "t_uint256"
      },
      "t_uint256": {
        "encoding": "inplace",
        "label": "uint256",
        "numberOfBytes": "32"
      }
    }
  }
}