{
  "address": "0x9497fE2C8C55941df573dd31d0f543ba12eF4dEe",
  "abi": [
    {
      "inputs": [
        {
          "internalType": "address",
          "name": "_token",
          "type": "address"
        },
        {
          "internalType": "address",
          "name": "_plsBonus",
          "type": "address"
        }
      ],
      "stateMutability": "nonpayable",
      "type": "constructor"
    },
    {
      "anonymous": false,
      "inputs": [
        {
          "indexed": true,
          "internalType": "address",
          "name": "previousOwner",
          "type": "address"
        },
        {
          "indexed": true,
          "internalType": "address",
          "name": "newOwner",
          "type": "address"
        }
      ],
      "name": "OwnershipTransferred",
      "type": "event"
    },
    {
      "inputs": [
        {
          "internalType": "string",
          "name": "gameId",
          "type": "string"
        },
        {
          "internalType": "address",
          "name": "player1",
          "type": "address"
        },
        {
          "internalType": "address",
          "name": "player2",
          "type": "address"
        },
        {
          "internalType": "uint256",
          "name": "deposit",
          "type": "uint256"
        }
      ],
      "name": "addGame",
      "outputs": [],
      "stateMutability": "nonpayable",
      "type": "function"
    },
    {
      "inputs": [
        {
          "internalType": "address",
          "name": "user",
          "type": "address"
        },
        {
          "internalType": "uint256",
          "name": "amt",
          "type": "uint256"
        }
      ],
      "name": "depositBonusForUser",
      "outputs": [],
      "stateMutability": "nonpayable",
      "type": "function"
    },
    {
      "inputs": [
        {
          "internalType": "uint256",
          "name": "amt",
          "type": "uint256"
        }
      ],
      "name": "depositToken",
      "outputs": [],
      "stateMutability": "nonpayable",
      "type": "function"
    },
    {
      "inputs": [],
      "name": "feeWallet",
      "outputs": [
        {
          "internalType": "address",
          "name": "",
          "type": "address"
        }
      ],
      "stateMutability": "view",
      "type": "function"
    },
    {
      "inputs": [
        {
          "internalType": "string",
          "name": "",
          "type": "string"
        }
      ],
      "name": "gameExists",
      "outputs": [
        {
          "internalType": "bool",
          "name": "",
          "type": "bool"
        }
      ],
      "stateMutability": "view",
      "type": "function"
    },
    {
      "inputs": [
        {
          "internalType": "string",
          "name": "",
          "type": "string"
        }
      ],
      "name": "games",
      "outputs": [
        {
          "internalType": "string",
          "name": "gameId",
          "type": "string"
        },
        {
          "internalType": "address",
          "name": "player1",
          "type": "address"
        },
        {
          "internalType": "address",
          "name": "player2",
          "type": "address"
        },
        {
          "internalType": "address",
          "name": "winner",
          "type": "address"
        },
        {
          "internalType": "uint256",
          "name": "deposit",
          "type": "uint256"
        },
        {
          "internalType": "uint256",
          "name": "platFee",
          "type": "uint256"
        },
        {
          "internalType": "enum PLSGame.Status",
          "name": "status",
          "type": "uint8"
        }
      ],
      "stateMutability": "view",
      "type": "function"
    },
    {
      "inputs": [
        {
          "internalType": "string",
          "name": "gameId",
          "type": "string"
        },
        {
          "internalType": "address",
          "name": "winner",
          "type": "address"
        }
      ],
      "name": "markGameComplete",
      "outputs": [],
      "stateMutability": "nonpayable",
      "type": "function"
    },
    {
      "inputs": [
        {
          "internalType": "string",
          "name": "gameId",
          "type": "string"
        },
        {
          "internalType": "bool",
          "name": "isMutualQuit",
          "type": "bool"
        }
      ],
      "name": "markGameIncomplete",
      "outputs": [],
      "stateMutability": "nonpayable",
      "type": "function"
    },
    {
      "inputs": [],
      "name": "owner",
      "outputs": [
        {
          "internalType": "address",
          "name": "",
          "type": "address"
        }
      ],
      "stateMutability": "view",
      "type": "function"
    },
    {
      "inputs": [],
      "name": "platFee",
      "outputs": [
        {
          "internalType": "uint256",
          "name": "",
          "type": "uint256"
        }
      ],
      "stateMutability": "view",
      "type": "function"
    },
    {
      "inputs": [],
      "name": "plsBonus",
      "outputs": [
        {
          "internalType": "address",
          "name": "",
          "type": "address"
        }
      ],
      "stateMutability": "view",
      "type": "function"
    },
    {
      "inputs": [
        {
          "internalType": "string",
          "name": "",
          "type": "string"
        }
      ],
      "name": "refundClaimed",
      "outputs": [
        {
          "internalType": "address",
          "name": "",
          "type": "address"
        }
      ],
      "stateMutability": "view",
      "type": "function"
    },
    {
      "inputs": [],
      "name": "renounceOwnership",
      "outputs": [],
      "stateMutability": "nonpayable",
      "type": "function"
    },
    {
      "inputs": [
        {
          "internalType": "address",
          "name": "_plsBonus",
          "type": "address"
        }
      ],
      "name": "setBonusAddress",
      "outputs": [],
      "stateMutability": "nonpayable",
      "type": "function"
    },
    {
      "inputs": [
        {
          "internalType": "address",
          "name": "_feeWallet",
          "type": "address"
        }
      ],
      "name": "setFeeWallet",
      "outputs": [],
      "stateMutability": "nonpayable",
      "type": "function"
    },
    {
      "inputs": [
        {
          "internalType": "uint256",
          "name": "_platFee",
          "type": "uint256"
        }
      ],
      "name": "setPlatfee",
      "outputs": [],
      "stateMutability": "nonpayable",
      "type": "function"
    },
    {
      "inputs": [],
      "name": "token",
      "outputs": [
        {
          "internalType": "contract ERC20",
          "name": "",
          "type": "address"
        }
      ],
      "stateMutability": "view",
      "type": "function"
    },
    {
      "inputs": [
        {
          "internalType": "address",
          "name": "newOwner",
          "type": "address"
        }
      ],
      "name": "transferOwnership",
      "outputs": [],
      "stateMutability": "nonpayable",
      "type": "function"
    },
    {
      "inputs": [
        {
          "internalType": "address",
          "name": "",
          "type": "address"
        }
      ],
      "name": "wallet",
      "outputs": [
        {
          "internalType": "uint256",
          "name": "",
          "type": "uint256"
        }
      ],
      "stateMutability": "view",
      "type": "function"
    },
    {
      "inputs": [
        {
          "internalType": "uint256",
          "name": "amt",
          "type": "uint256"
        }
      ],
      "name": "withdrawToken",
      "outputs": [],
      "stateMutability": "nonpayable",
      "type": "function"
    }
  ],
  "transactionHash": "0x08cb2a1e60e1726bbec28e82c14ea1d6815abd4e3756e0b6bee1cdba3ec458cd",
  "args": [
    "0x5F7937ae6118490d1eB6768FE014Cd7BB5c5bF28",
    "0x62E60A2561d64c467D5dB0d1a0e68A8F15EB5626"
  ],
  "numDeployments": 2,
  "solcInputHash": "6c148336d1ae41bfd3005c4f9eea5a03",
  "bytecode": "0x60a06040526107d06001553480156200001757600080fd5b50604051620033c2380380620033c283398181016040528101906200003d919062000251565b6200005d620000516200011b60201b60201c565b6200012360201b60201c565b8173ffffffffffffffffffffffffffffffffffffffff1660808173ffffffffffffffffffffffffffffffffffffffff168152505033600260006101000a81548173ffffffffffffffffffffffffffffffffffffffff021916908373ffffffffffffffffffffffffffffffffffffffff16021790555080600360006101000a81548173ffffffffffffffffffffffffffffffffffffffff021916908373ffffffffffffffffffffffffffffffffffffffff160217905550505062000298565b600033905090565b60008060009054906101000a900473ffffffffffffffffffffffffffffffffffffffff169050816000806101000a81548173ffffffffffffffffffffffffffffffffffffffff021916908373ffffffffffffffffffffffffffffffffffffffff1602179055508173ffffffffffffffffffffffffffffffffffffffff168173ffffffffffffffffffffffffffffffffffffffff167f8be0079c531659141344cd1fd0a4f28419497f9722a3daafe3b4186f6b6457e060405160405180910390a35050565b600080fd5b600073ffffffffffffffffffffffffffffffffffffffff82169050919050565b60006200021982620001ec565b9050919050565b6200022b816200020c565b81146200023757600080fd5b50565b6000815190506200024b8162000220565b92915050565b600080604083850312156200026b576200026a620001e7565b5b60006200027b858286016200023a565b92505060206200028e858286016200023a565b9150509250929050565b6080516130f9620002c9600039600081816109df01528181610a840152818161172c01526118bf01526130f96000f3fe608060405234801561001057600080fd5b506004361061012c5760003560e01c80638da5cb5b116100ad578063f2373a5511610071578063f2373a551461031d578063f25f4b561461033b578063f2fde38b14610359578063fc0c546a14610375578063fca3fa7f146103935761012c565b80638da5cb5b1461027b57806390d49b9d14610299578063a56cc439146102b5578063c97f8363146102e5578063d1bb40a7146103015761012c565b80636400619e116100f45780636400619e146101d35780636d20931a14610203578063715018a614610239578063733f90ae146102435780638d4cc5451461025f5761012c565b80633c07d9ef146101315780633f15670c146101615780634e014fa51461017d57806350baa6221461019b5780636215be77146101b7575b600080fd5b61014b60048036038101906101469190612020565b6103af565b60405161015891906120aa565b60405180910390f35b61017b60048036038101906101769190612187565b6103f8565b005b6101856108fa565b604051610192919061221e565b60405180910390f35b6101b560048036038101906101b09190612239565b610900565b005b6101d160048036038101906101cc9190612239565b610a26565b005b6101ed60048036038101906101e89190612020565b610acc565b6040516101fa9190612281565b60405180910390f35b61021d60048036038101906102189190612020565b610b02565b604051610230979695949392919061239b565b60405180910390f35b610241610c4f565b005b61025d6004803603810190610258919061243d565b610cd7565b005b61027960048036038101906102749190612239565b610fdc565b005b6102836110a7565b60405161029091906120aa565b60405180910390f35b6102b360048036038101906102ae919061249d565b6110d0565b005b6102cf60048036038101906102ca919061249d565b611200565b6040516102dc919061221e565b60405180910390f35b6102ff60048036038101906102fa919061249d565b611218565b005b61031b600480360381019061031691906124ca565b611348565b005b610325611779565b60405161033291906120aa565b60405180910390f35b61034361179f565b60405161035091906120aa565b60405180910390f35b610373600480360381019061036e919061249d565b6117c5565b005b61037d6118bd565b60405161038a9190612589565b60405180910390f35b6103ad60048036038101906103a891906125a4565b6118e1565b005b6007818051602081018201805184825260208301602085012081835280955050505050506000915054906101000a900473ffffffffffffffffffffffffffffffffffffffff1681565b6104006119cb565b73ffffffffffffffffffffffffffffffffffffffff1661041e6110a7565b73ffffffffffffffffffffffffffffffffffffffff1614610474576040517f08c379a000000000000000000000000000000000000000000000000000000000815260040161046b90612630565b60405180910390fd5b60068585604051610486929190612680565b908152602001604051809103902060009054906101000a900460ff16156104e2576040517f08c379a00000000000000000000000000000000000000000000000000000000081526004016104d9906126e5565b60405180910390fd5b600460008473ffffffffffffffffffffffffffffffffffffffff1673ffffffffffffffffffffffffffffffffffffffff16815260200190815260200160002054811115610564576040517f08c379a000000000000000000000000000000000000000000000000000000000815260040161055b90612751565b60405180910390fd5b600460008373ffffffffffffffffffffffffffffffffffffffff1673ffffffffffffffffffffffffffffffffffffffff168152602001908152602001600020548111156105e6576040517f08c379a00000000000000000000000000000000000000000000000000000000081526004016105dd906127bd565b60405180910390fd5b80600460008573ffffffffffffffffffffffffffffffffffffffff1673ffffffffffffffffffffffffffffffffffffffff1681526020019081526020016000206000828254610635919061280c565b9250508190555080600460008473ffffffffffffffffffffffffffffffffffffffff1673ffffffffffffffffffffffffffffffffffffffff168152602001908152602001600020600082825461068b919061280c565b925050819055506001600686866040516106a6929190612680565b908152602001604051809103902060006101000a81548160ff0219169083151502179055506040518060e0016040528086868080601f016020809104026020016040519081016040528093929190818152602001838380828437600081840152601f19601f8201169050808301925050505050505081526020018473ffffffffffffffffffffffffffffffffffffffff1681526020018373ffffffffffffffffffffffffffffffffffffffff168152602001600073ffffffffffffffffffffffffffffffffffffffff16815260200182815260200160015481526020016000600381111561079757610796612324565b5b815250600586866040516107ac929190612680565b908152602001604051809103902060008201518160000190805190602001906107d6929190611e23565b5060208201518160010160006101000a81548173ffffffffffffffffffffffffffffffffffffffff021916908373ffffffffffffffffffffffffffffffffffffffff16021790555060408201518160020160006101000a81548173ffffffffffffffffffffffffffffffffffffffff021916908373ffffffffffffffffffffffffffffffffffffffff16021790555060608201518160030160006101000a81548173ffffffffffffffffffffffffffffffffffffffff021916908373ffffffffffffffffffffffffffffffffffffffff1602179055506080820151816004015560a0820151816005015560c08201518160060160006101000a81548160ff021916908360038111156108eb576108ea612324565b5b02179055509050505050505050565b60015481565b600460003373ffffffffffffffffffffffffffffffffffffffff1673ffffffffffffffffffffffffffffffffffffffff16815260200190815260200160002054811115610982576040517f08c379a00000000000000000000000000000000000000000000000000000000081526004016109799061288c565b60405180910390fd5b80600460003373ffffffffffffffffffffffffffffffffffffffff1673ffffffffffffffffffffffffffffffffffffffff16815260200190815260200160002060008282546109d1919061280c565b92505081905550610a2333827f000000000000000000000000000000000000000000000000000000000000000073ffffffffffffffffffffffffffffffffffffffff166119d39092919063ffffffff16565b50565b80600460003373ffffffffffffffffffffffffffffffffffffffff1673ffffffffffffffffffffffffffffffffffffffff1681526020019081526020016000206000828254610a7591906128ac565b92505081905550610ac93330837f000000000000000000000000000000000000000000000000000000000000000073ffffffffffffffffffffffffffffffffffffffff16611a59909392919063ffffffff16565b50565b6006818051602081018201805184825260208301602085012081835280955050505050506000915054906101000a900460ff1681565b600581805160208101820180518482526020830160208501208183528095505050505050600091509050806000018054610b3b90612931565b80601f0160208091040260200160405190810160405280929190818152602001828054610b6790612931565b8015610bb45780601f10610b8957610100808354040283529160200191610bb4565b820191906000526020600020905b815481529060010190602001808311610b9757829003601f168201915b5050505050908060010160009054906101000a900473ffffffffffffffffffffffffffffffffffffffff16908060020160009054906101000a900473ffffffffffffffffffffffffffffffffffffffff16908060030160009054906101000a900473ffffffffffffffffffffffffffffffffffffffff16908060040154908060050154908060060160009054906101000a900460ff16905087565b610c576119cb565b73ffffffffffffffffffffffffffffffffffffffff16610c756110a7565b73ffffffffffffffffffffffffffffffffffffffff1614610ccb576040517f08c379a0000000000000000000000000000000000000000000000000000000008152600401610cc290612630565b60405180910390fd5b610cd56000611ae2565b565b610cdf6119cb565b73ffffffffffffffffffffffffffffffffffffffff16610cfd6110a7565b73ffffffffffffffffffffffffffffffffffffffff1614610d53576040517f08c379a0000000000000000000000000000000000000000000000000000000008152600401610d4a90612630565b60405180910390fd5b82828080601f016020809104026020016040519081016040528093929190818152602001838380828437600081840152601f19601f82011690508083019250505050505050600681604051610da89190612994565b908152602001604051809103902060009054906101000a900460ff16610e03576040517f08c379a0000000000000000000000000000000000000000000000000000000008152600401610dfa906129f7565b60405180910390fd5b600060058585604051610e17929190612680565b9081526020016040518091039020905060006003811115610e3b57610e3a612324565b5b8160060160009054906101000a900460ff166003811115610e5f57610e5e612324565b5b14610e9f576040517f08c379a0000000000000000000000000000000000000000000000000000000008152600401610e9690612a63565b60405180910390fd5b82610eab576002610eae565b60035b8160060160006101000a81548160ff02191690836003811115610ed457610ed3612324565b5b02179055508060040154600460008360010160009054906101000a900473ffffffffffffffffffffffffffffffffffffffff1673ffffffffffffffffffffffffffffffffffffffff1673ffffffffffffffffffffffffffffffffffffffff1681526020019081526020016000206000828254610f5091906128ac565b925050819055508060040154600460008360020160009054906101000a900473ffffffffffffffffffffffffffffffffffffffff1673ffffffffffffffffffffffffffffffffffffffff1673ffffffffffffffffffffffffffffffffffffffff1681526020019081526020016000206000828254610fce91906128ac565b925050819055505050505050565b610fe46119cb565b73ffffffffffffffffffffffffffffffffffffffff166110026110a7565b73ffffffffffffffffffffffffffffffffffffffff1614611058576040517f08c379a000000000000000000000000000000000000000000000000000000000815260040161104f90612630565b60405180910390fd5b610fa081111561109d576040517f08c379a000000000000000000000000000000000000000000000000000000000815260040161109490612acf565b60405180910390fd5b8060018190555050565b60008060009054906101000a900473ffffffffffffffffffffffffffffffffffffffff16905090565b6110d86119cb565b73ffffffffffffffffffffffffffffffffffffffff166110f66110a7565b73ffffffffffffffffffffffffffffffffffffffff161461114c576040517f08c379a000000000000000000000000000000000000000000000000000000000815260040161114390612630565b60405180910390fd5b600073ffffffffffffffffffffffffffffffffffffffff168173ffffffffffffffffffffffffffffffffffffffff1614156111bc576040517f08c379a00000000000000000000000000000000000000000000000000000000081526004016111b390612b3b565b60405180910390fd5b80600260006101000a81548173ffffffffffffffffffffffffffffffffffffffff021916908373ffffffffffffffffffffffffffffffffffffffff16021790555050565b60046020528060005260406000206000915090505481565b6112206119cb565b73ffffffffffffffffffffffffffffffffffffffff1661123e6110a7565b73ffffffffffffffffffffffffffffffffffffffff1614611294576040517f08c379a000000000000000000000000000000000000000000000000000000000815260040161128b90612630565b60405180910390fd5b600073ffffffffffffffffffffffffffffffffffffffff168173ffffffffffffffffffffffffffffffffffffffff161415611304576040517f08c379a00000000000000000000000000000000000000000000000000000000081526004016112fb90612ba7565b60405180910390fd5b80600360006101000a81548173ffffffffffffffffffffffffffffffffffffffff021916908373ffffffffffffffffffffffffffffffffffffffff16021790555050565b6113506119cb565b73ffffffffffffffffffffffffffffffffffffffff1661136e6110a7565b73ffffffffffffffffffffffffffffffffffffffff16146113c4576040517f08c379a00000000000000000000000000000000000000000000000000000000081526004016113bb90612630565b60405180910390fd5b82828080601f016020809104026020016040519081016040528093929190818152602001838380828437600081840152601f19601f820116905080830192505050505050506006816040516114199190612994565b908152602001604051809103902060009054906101000a900460ff16611474576040517f08c379a000000000000000000000000000000000000000000000000000000000815260040161146b906129f7565b60405180910390fd5b600060058585604051611488929190612680565b90815260200160405180910390209050600060038111156114ac576114ab612324565b5b8160060160009054906101000a900460ff1660038111156114d0576114cf612324565b5b14611510576040517f08c379a000000000000000000000000000000000000000000000000000000000815260040161150790612a63565b60405180910390fd5b8060010160009054906101000a900473ffffffffffffffffffffffffffffffffffffffff1673ffffffffffffffffffffffffffffffffffffffff168373ffffffffffffffffffffffffffffffffffffffff1614806115bd57508060020160009054906101000a900473ffffffffffffffffffffffffffffffffffffffff1673ffffffffffffffffffffffffffffffffffffffff168373ffffffffffffffffffffffffffffffffffffffff16145b6115fc576040517f08c379a00000000000000000000000000000000000000000000000000000000081526004016115f390612c39565b60405180910390fd5b60018160060160006101000a81548160ff0219169083600381111561162457611623612324565b5b0217905550828160030160006101000a81548173ffffffffffffffffffffffffffffffffffffffff021916908373ffffffffffffffffffffffffffffffffffffffff16021790555060008160040154600261167f9190612c59565b905060006127108360050154836116969190612c59565b6116a09190612ce2565b905080826116ae919061280c565b600460008773ffffffffffffffffffffffffffffffffffffffff1673ffffffffffffffffffffffffffffffffffffffff16815260200190815260200160002060008282546116fc91906128ac565b92505081905550611770600260009054906101000a900473ffffffffffffffffffffffffffffffffffffffff16827f000000000000000000000000000000000000000000000000000000000000000073ffffffffffffffffffffffffffffffffffffffff166119d39092919063ffffffff16565b50505050505050565b600360009054906101000a900473ffffffffffffffffffffffffffffffffffffffff1681565b600260009054906101000a900473ffffffffffffffffffffffffffffffffffffffff1681565b6117cd6119cb565b73ffffffffffffffffffffffffffffffffffffffff166117eb6110a7565b73ffffffffffffffffffffffffffffffffffffffff1614611841576040517f08c379a000000000000000000000000000000000000000000000000000000000815260040161183890612630565b60405180910390fd5b600073ffffffffffffffffffffffffffffffffffffffff168173ffffffffffffffffffffffffffffffffffffffff1614156118b1576040517f08c379a00000000000000000000000000000000000000000000000000000000081526004016118a890612d85565b60405180910390fd5b6118ba81611ae2565b50565b7f000000000000000000000000000000000000000000000000000000000000000081565b600360009054906101000a900473ffffffffffffffffffffffffffffffffffffffff1673ffffffffffffffffffffffffffffffffffffffff163373ffffffffffffffffffffffffffffffffffffffff1614611971576040517f08c379a000000000000000000000000000000000000000000000000000000000815260040161196890612df1565b60405180910390fd5b80600460008473ffffffffffffffffffffffffffffffffffffffff1673ffffffffffffffffffffffffffffffffffffffff16815260200190815260200160002060008282546119c091906128ac565b925050819055505050565b600033905090565b611a548363a9059cbb60e01b84846040516024016119f2929190612e11565b604051602081830303815290604052907bffffffffffffffffffffffffffffffffffffffffffffffffffffffff19166020820180517bffffffffffffffffffffffffffffffffffffffffffffffffffffffff8381831617835250505050611ba6565b505050565b611adc846323b872dd60e01b858585604051602401611a7a93929190612e3a565b604051602081830303815290604052907bffffffffffffffffffffffffffffffffffffffffffffffffffffffff19166020820180517bffffffffffffffffffffffffffffffffffffffffffffffffffffffff8381831617835250505050611ba6565b50505050565b60008060009054906101000a900473ffffffffffffffffffffffffffffffffffffffff169050816000806101000a81548173ffffffffffffffffffffffffffffffffffffffff021916908373ffffffffffffffffffffffffffffffffffffffff1602179055508173ffffffffffffffffffffffffffffffffffffffff168173ffffffffffffffffffffffffffffffffffffffff167f8be0079c531659141344cd1fd0a4f28419497f9722a3daafe3b4186f6b6457e060405160405180910390a35050565b6000611c08826040518060400160405280602081526020017f5361666545524332303a206c6f772d6c6576656c2063616c6c206661696c65648152508573ffffffffffffffffffffffffffffffffffffffff16611c6d9092919063ffffffff16565b9050600081511115611c685780806020019051810190611c289190612e86565b611c67576040517f08c379a0000000000000000000000000000000000000000000000000000000008152600401611c5e90612f25565b60405180910390fd5b5b505050565b6060611c7c8484600085611c85565b90509392505050565b606082471015611cca576040517f08c379a0000000000000000000000000000000000000000000000000000000008152600401611cc190612fb7565b60405180910390fd5b611cd385611d99565b611d12576040517f08c379a0000000000000000000000000000000000000000000000000000000008152600401611d0990613023565b60405180910390fd5b6000808673ffffffffffffffffffffffffffffffffffffffff168587604051611d3b919061308a565b60006040518083038185875af1925050503d8060008114611d78576040519150601f19603f3d011682016040523d82523d6000602084013e611d7d565b606091505b5091509150611d8d828286611dbc565b92505050949350505050565b6000808273ffffffffffffffffffffffffffffffffffffffff163b119050919050565b60608315611dcc57829050611e1c565b600083511115611ddf5782518084602001fd5b816040517f08c379a0000000000000000000000000000000000000000000000000000000008152600401611e1391906130a1565b60405180910390fd5b9392505050565b828054611e2f90612931565b90600052602060002090601f016020900481019282611e515760008555611e98565b82601f10611e6a57805160ff1916838001178555611e98565b82800160010185558215611e98579182015b82811115611e97578251825591602001919060010190611e7c565b5b509050611ea59190611ea9565b5090565b5b80821115611ec2576000816000905550600101611eaa565b5090565b6000604051905090565b600080fd5b600080fd5b600080fd5b600080fd5b6000601f19601f8301169050919050565b7f4e487b7100000000000000000000000000000000000000000000000000000000600052604160045260246000fd5b611f2d82611ee4565b810181811067ffffffffffffffff82111715611f4c57611f4b611ef5565b5b80604052505050565b6000611f5f611ec6565b9050611f6b8282611f24565b919050565b600067ffffffffffffffff821115611f8b57611f8a611ef5565b5b611f9482611ee4565b9050602081019050919050565b82818337600083830152505050565b6000611fc3611fbe84611f70565b611f55565b905082815260208101848484011115611fdf57611fde611edf565b5b611fea848285611fa1565b509392505050565b600082601f83011261200757612006611eda565b5b8135612017848260208601611fb0565b91505092915050565b60006020828403121561203657612035611ed0565b5b600082013567ffffffffffffffff81111561205457612053611ed5565b5b61206084828501611ff2565b91505092915050565b600073ffffffffffffffffffffffffffffffffffffffff82169050919050565b600061209482612069565b9050919050565b6120a481612089565b82525050565b60006020820190506120bf600083018461209b565b92915050565b600080fd5b600080fd5b60008083601f8401126120e5576120e4611eda565b5b8235905067ffffffffffffffff811115612102576121016120c5565b5b60208301915083600182028301111561211e5761211d6120ca565b5b9250929050565b61212e81612089565b811461213957600080fd5b50565b60008135905061214b81612125565b92915050565b6000819050919050565b61216481612151565b811461216f57600080fd5b50565b6000813590506121818161215b565b92915050565b6000806000806000608086880312156121a3576121a2611ed0565b5b600086013567ffffffffffffffff8111156121c1576121c0611ed5565b5b6121cd888289016120cf565b955095505060206121e08882890161213c565b93505060406121f18882890161213c565b925050606061220288828901612172565b9150509295509295909350565b61221881612151565b82525050565b6000602082019050612233600083018461220f565b92915050565b60006020828403121561224f5761224e611ed0565b5b600061225d84828501612172565b91505092915050565b60008115159050919050565b61227b81612266565b82525050565b60006020820190506122966000830184612272565b92915050565b600081519050919050565b600082825260208201905092915050565b60005b838110156122d65780820151818401526020810190506122bb565b838111156122e5576000848401525b50505050565b60006122f68261229c565b61230081856122a7565b93506123108185602086016122b8565b61231981611ee4565b840191505092915050565b7f4e487b7100000000000000000000000000000000000000000000000000000000600052602160045260246000fd5b6004811061236457612363612324565b5b50565b600081905061237582612353565b919050565b600061238582612367565b9050919050565b6123958161237a565b82525050565b600060e08201905081810360008301526123b5818a6122eb565b90506123c4602083018961209b565b6123d1604083018861209b565b6123de606083018761209b565b6123eb608083018661220f565b6123f860a083018561220f565b61240560c083018461238c565b98975050505050505050565b61241a81612266565b811461242557600080fd5b50565b60008135905061243781612411565b92915050565b60008060006040848603121561245657612455611ed0565b5b600084013567ffffffffffffffff81111561247457612473611ed5565b5b612480868287016120cf565b9350935050602061249386828701612428565b9150509250925092565b6000602082840312156124b3576124b2611ed0565b5b60006124c18482850161213c565b91505092915050565b6000806000604084860312156124e3576124e2611ed0565b5b600084013567ffffffffffffffff81111561250157612500611ed5565b5b61250d868287016120cf565b935093505060206125208682870161213c565b9150509250925092565b6000819050919050565b600061254f61254a61254584612069565b61252a565b612069565b9050919050565b600061256182612534565b9050919050565b600061257382612556565b9050919050565b61258381612568565b82525050565b600060208201905061259e600083018461257a565b92915050565b600080604083850312156125bb576125ba611ed0565b5b60006125c98582860161213c565b92505060206125da85828601612172565b9150509250929050565b7f4f776e61626c653a2063616c6c6572206973206e6f7420746865206f776e6572600082015250565b600061261a6020836122a7565b9150612625826125e4565b602082019050919050565b600060208201905081810360008301526126498161260d565b9050919050565b600081905092915050565b60006126678385612650565b9350612674838584611fa1565b82840190509392505050565b600061268d82848661265b565b91508190509392505050565b7f52657065617465642047616d6520494400000000000000000000000000000000600082015250565b60006126cf6010836122a7565b91506126da82612699565b602082019050919050565b600060208201905081810360008301526126fe816126c2565b9050919050565b7f496e73756666696369656e742042616c616e63653a506c617965722031000000600082015250565b600061273b601d836122a7565b915061274682612705565b602082019050919050565b6000602082019050818103600083015261276a8161272e565b9050919050565b7f496e73756666696369656e742042616c616e63653a506c617965722032000000600082015250565b60006127a7601d836122a7565b91506127b282612771565b602082019050919050565b600060208201905081810360008301526127d68161279a565b9050919050565b7f4e487b7100000000000000000000000000000000000000000000000000000000600052601160045260246000fd5b600061281782612151565b915061282283612151565b925082821015612835576128346127dd565b5b828203905092915050565b7f496e73756666696369656e742042616c616e6365000000000000000000000000600082015250565b60006128766014836122a7565b915061288182612840565b602082019050919050565b600060208201905081810360008301526128a581612869565b9050919050565b60006128b782612151565b91506128c283612151565b9250827fffffffffffffffffffffffffffffffffffffffffffffffffffffffffffffffff038211156128f7576128f66127dd565b5b828201905092915050565b7f4e487b7100000000000000000000000000000000000000000000000000000000600052602260045260246000fd5b6000600282049050600182168061294957607f821691505b6020821081141561295d5761295c612902565b5b50919050565b600061296e8261229c565b6129788185612650565b93506129888185602086016122b8565b80840191505092915050565b60006129a08284612963565b915081905092915050565b7f47616d6520646f6573206e6f7420657869737400000000000000000000000000600082015250565b60006129e16013836122a7565b91506129ec826129ab565b602082019050919050565b60006020820190508181036000830152612a10816129d4565b9050919050565b7f47616d65206e6f7420696e20696e697469616c20737461746500000000000000600082015250565b6000612a4d6019836122a7565b9150612a5882612a17565b602082019050919050565b60006020820190508181036000830152612a7c81612a40565b9050919050565b7f466565207468726573686f6c6420657863656564656400000000000000000000600082015250565b6000612ab96016836122a7565b9150612ac482612a83565b602082019050919050565b60006020820190508181036000830152612ae881612aac565b9050919050565b7f496e76616c6964206665652077616c6c65740000000000000000000000000000600082015250565b6000612b256012836122a7565b9150612b3082612aef565b602082019050919050565b60006020820190508181036000830152612b5481612b18565b9050919050565b7f496e76616c696420626f6e757320616464726573730000000000000000000000600082015250565b6000612b916015836122a7565b9150612b9c82612b5b565b602082019050919050565b60006020820190508181036000830152612bc081612b84565b9050919050565b7f57696e6e65722061646472657373206973206e6f74206120706172746963697060008201527f616e740000000000000000000000000000000000000000000000000000000000602082015250565b6000612c236023836122a7565b9150612c2e82612bc7565b604082019050919050565b60006020820190508181036000830152612c5281612c16565b9050919050565b6000612c6482612151565b9150612c6f83612151565b9250817fffffffffffffffffffffffffffffffffffffffffffffffffffffffffffffffff0483118215151615612ca857612ca76127dd565b5b828202905092915050565b7f4e487b7100000000000000000000000000000000000000000000000000000000600052601260045260246000fd5b6000612ced82612151565b9150612cf883612151565b925082612d0857612d07612cb3565b5b828204905092915050565b7f4f776e61626c653a206e6577206f776e657220697320746865207a65726f206160008201527f6464726573730000000000000000000000000000000000000000000000000000602082015250565b6000612d6f6026836122a7565b9150612d7a82612d13565b604082019050919050565b60006020820190508181036000830152612d9e81612d62565b9050919050565b7f43616c6c6572206e6f7420626f6e757320636f6e747261637400000000000000600082015250565b6000612ddb6019836122a7565b9150612de682612da5565b602082019050919050565b60006020820190508181036000830152612e0a81612dce565b9050919050565b6000604082019050612e26600083018561209b565b612e33602083018461220f565b9392505050565b6000606082019050612e4f600083018661209b565b612e5c602083018561209b565b612e69604083018461220f565b949350505050565b600081519050612e8081612411565b92915050565b600060208284031215612e9c57612e9b611ed0565b5b6000612eaa84828501612e71565b91505092915050565b7f5361666545524332303a204552433230206f7065726174696f6e20646964206e60008201527f6f74207375636365656400000000000000000000000000000000000000000000602082015250565b6000612f0f602a836122a7565b9150612f1a82612eb3565b604082019050919050565b60006020820190508181036000830152612f3e81612f02565b9050919050565b7f416464726573733a20696e73756666696369656e742062616c616e636520666f60008201527f722063616c6c0000000000000000000000000000000000000000000000000000602082015250565b6000612fa16026836122a7565b9150612fac82612f45565b604082019050919050565b60006020820190508181036000830152612fd081612f94565b9050919050565b7f416464726573733a2063616c6c20746f206e6f6e2d636f6e7472616374000000600082015250565b600061300d601d836122a7565b915061301882612fd7565b602082019050919050565b6000602082019050818103600083015261303c81613000565b9050919050565b600081519050919050565b600081905092915050565b600061306482613043565b61306e818561304e565b935061307e8185602086016122b8565b80840191505092915050565b60006130968284613059565b915081905092915050565b600060208201905081810360008301526130bb81846122eb565b90509291505056fea2646970667358221220010d5fd159b397a089728f7bd62b28331e4870d0d3b424c96a059b7fdeec284764736f6c63430008090033",
  "devdoc": {
    "kind": "dev",
    "methods": {
      "owner()": {
        "details": "Returns the address of the current owner."
      },
      "renounceOwnership()": {
        "details": "Leaves the contract without owner. It will not be possible to call `onlyOwner` functions anymore. Can only be called by the current owner. NOTE: Renouncing ownership will leave the contract without an owner, thereby removing any functionality that is only available to the owner."
      },
      "transferOwnership(address)": {
        "details": "Transfers ownership of the contract to a new account (`newOwner`). Can only be called by the current owner."
      }
    },
    "version": 1
  },
  "userdoc": {
    "kind": "user",
    "methods": {},
    "version": 1
  },
  "storageLayout": {
    "storage": [
      {
        "astId": 7,
        "contract": "contracts/PLSGame.sol:PLSGame",
        "label": "_owner",
        "offset": 0,
        "slot": "0",
        "type": "t_address"
      },
      {
        "astId": 1371,
        "contract": "contracts/PLSGame.sol:PLSGame",
        "label": "platFee",
        "offset": 0,
        "slot": "1",
        "type": "t_uint256"
      },
      {
        "astId": 1376,
        "contract": "contracts/PLSGame.sol:PLSGame",
        "label": "feeWallet",
        "offset": 0,
        "slot": "2",
        "type": "t_address"
      },
      {
        "astId": 1378,
        "contract": "contracts/PLSGame.sol:PLSGame",
        "label": "plsBonus",
        "offset": 0,
        "slot": "3",
        "type": "t_address"
      },
      {
        "astId": 1382,
        "contract": "contracts/PLSGame.sol:PLSGame",
        "label": "wallet",
        "offset": 0,
        "slot": "4",
        "type": "t_mapping(t_address,t_uint256)"
      },
      {
        "astId": 1387,
        "contract": "contracts/PLSGame.sol:PLSGame",
        "label": "games",
        "offset": 0,
        "slot": "5",
        "type": "t_mapping(t_string_memory_ptr,t_struct(Game)1368_storage)"
      },
      {
        "astId": 1391,
        "contract": "contracts/PLSGame.sol:PLSGame",
        "label": "gameExists",
        "offset": 0,
        "slot": "6",
        "type": "t_mapping(t_string_memory_ptr,t_bool)"
      },
      {
        "astId": 1395,
        "contract": "contracts/PLSGame.sol:PLSGame",
        "label": "refundClaimed",
        "offset": 0,
        "slot": "7",
        "type": "t_mapping(t_string_memory_ptr,t_address)"
      }
    ],
    "types": {
      "t_address": {
        "encoding": "inplace",
        "label": "address",
        "numberOfBytes": "20"
      },
      "t_bool": {
        "encoding": "inplace",
        "label": "bool",
        "numberOfBytes": "1"
      },
      "t_enum(Status)1352": {
        "encoding": "inplace",
        "label": "enum PLSGame.Status",
        "numberOfBytes": "1"
      },
      "t_mapping(t_address,t_uint256)": {
        "encoding": "mapping",
        "key": "t_address",
        "label": "mapping(address => uint256)",
        "numberOfBytes": "32",
        "value": "t_uint256"
      },
      "t_mapping(t_string_memory_ptr,t_address)": {
        "encoding": "mapping",
        "key": "t_string_memory_ptr",
        "label": "mapping(string => address)",
        "numberOfBytes": "32",
        "value": "t_address"
      },
      "t_mapping(t_string_memory_ptr,t_bool)": {
        "encoding": "mapping",
        "key": "t_string_memory_ptr",
        "label": "mapping(string => bool)",
        "numberOfBytes": "32",
        "value": "t_bool"
      },
      "t_mapping(t_string_memory_ptr,t_struct(Game)1368_storage)": {
        "encoding": "mapping",
        "key": "t_string_memory_ptr",
        "label": "mapping(string => struct PLSGame.Game)",
        "numberOfBytes": "32",
        "value": "t_struct(Game)1368_storage"
      },
      "t_string_memory_ptr": {
        "encoding": "bytes",
        "label": "string",
        "numberOfBytes": "32"
      },
      "t_string_storage": {
        "encoding": "bytes",
        "label": "string",
        "numberOfBytes": "32"
      },
      "t_struct(Game)1368_storage": {
        "encoding": "inplace",
        "label": "struct PLSGame.Game",
        "members": [
          {
            "astId": 1354,
            "contract": "contracts/PLSGame.sol:PLSGame",
            "label": "gameId",
            "offset": 0,
            "slot": "0",
            "type": "t_string_storage"
          },
          {
            "astId": 1356,
            "contract": "contracts/PLSGame.sol:PLSGame",
            "label": "player1",
            "offset": 0,
            "slot": "1",
            "type": "t_address"
          },
          {
            "astId": 1358,
            "contract": "contracts/PLSGame.sol:PLSGame",
            "label": "player2",
            "offset": 0,
            "slot": "2",
            "type": "t_address"
          },
          {
            "astId": 1360,
            "contract": "contracts/PLSGame.sol:PLSGame",
            "label": "winner",
            "offset": 0,
            "slot": "3",
            "type": "t_address"
          },
          {
            "astId": 1362,
            "contract": "contracts/PLSGame.sol:PLSGame",
            "label": "deposit",
            "offset": 0,
            "slot": "4",
            "type": "t_uint256"
          },
          {
            "astId": 1364,
            "contract": "contracts/PLSGame.sol:PLSGame",
            "label": "platFee",
            "offset": 0,
            "slot": "5",
            "type": "t_uint256"
          },
          {
            "astId": 1367,
            "contract": "contracts/PLSGame.sol:PLSGame",
            "label": "status",
            "offset": 0,
            "slot": "6",
            "type": "t_enum(Status)1352"
          }
        ],
        "numberOfBytes": "224"
      },
      "t_uint256": {
        "encoding": "inplace",
        "label": "uint256",
        "numberOfBytes": "32"
      }
    }
  }
}