{
  "address": "0xA9132437D0d02A07d61c975ed6bA1B6a8D30558B",
  "abi": [
    {
      "inputs": [
        {
          "internalType": "address",
          "name": "_bonusToken",
          "type": "address"
        },
        {
          "internalType": "uint256",
          "name": "_maxBonus",
          "type": "uint256"
        }
      ],
      "stateMutability": "nonpayable",
      "type": "constructor"
    },
    {
      "anonymous": false,
      "inputs": [
        {
          "indexed": true,
          "internalType": "address",
          "name": "previousOwner",
          "type": "address"
        },
        {
          "indexed": true,
          "internalType": "address",
          "name": "newOwner",
          "type": "address"
        }
      ],
      "name": "OwnershipTransferred",
      "type": "event"
    },
    {
      "inputs": [
        {
          "internalType": "address[]",
          "name": "accs",
          "type": "address[]"
        },
        {
          "internalType": "uint256[]",
          "name": "bonus",
          "type": "uint256[]"
        }
      ],
      "name": "addBonusForUsers",
      "outputs": [],
      "stateMutability": "nonpayable",
      "type": "function"
    },
    {
      "inputs": [],
      "name": "bonusToken",
      "outputs": [
        {
          "internalType": "contract ERC20",
          "name": "",
          "type": "address"
        }
      ],
      "stateMutability": "view",
      "type": "function"
    },
    {
      "inputs": [],
      "name": "claimBonus",
      "outputs": [],
      "stateMutability": "nonpayable",
      "type": "function"
    },
    {
      "inputs": [],
      "name": "maxBonus",
      "outputs": [
        {
          "internalType": "uint256",
          "name": "",
          "type": "uint256"
        }
      ],
      "stateMutability": "view",
      "type": "function"
    },
    {
      "inputs": [],
      "name": "owner",
      "outputs": [
        {
          "internalType": "address",
          "name": "",
          "type": "address"
        }
      ],
      "stateMutability": "view",
      "type": "function"
    },
    {
      "inputs": [],
      "name": "plsGame",
      "outputs": [
        {
          "internalType": "contract IPLSGame",
          "name": "",
          "type": "address"
        }
      ],
      "stateMutability": "view",
      "type": "function"
    },
    {
      "inputs": [],
      "name": "renounceOwnership",
      "outputs": [],
      "stateMutability": "nonpayable",
      "type": "function"
    },
    {
      "inputs": [
        {
          "internalType": "uint256",
          "name": "_maxBonus",
          "type": "uint256"
        }
      ],
      "name": "setMaxBonus",
      "outputs": [],
      "stateMutability": "nonpayable",
      "type": "function"
    },
    {
      "inputs": [
        {
          "internalType": "address",
          "name": "_plsGameAdd",
          "type": "address"
        }
      ],
      "name": "setPlsGameAdd",
      "outputs": [],
      "stateMutability": "nonpayable",
      "type": "function"
    },
    {
      "inputs": [],
      "name": "tokenDebt",
      "outputs": [
        {
          "internalType": "uint256",
          "name": "",
          "type": "uint256"
        }
      ],
      "stateMutability": "view",
      "type": "function"
    },
    {
      "inputs": [
        {
          "internalType": "address",
          "name": "newOwner",
          "type": "address"
        }
      ],
      "name": "transferOwnership",
      "outputs": [],
      "stateMutability": "nonpayable",
      "type": "function"
    },
    {
      "inputs": [
        {
          "internalType": "address",
          "name": "",
          "type": "address"
        }
      ],
      "name": "userBonus",
      "outputs": [
        {
          "internalType": "uint256",
          "name": "",
          "type": "uint256"
        }
      ],
      "stateMutability": "view",
      "type": "function"
    },
    {
      "inputs": [
        {
          "internalType": "address",
          "name": "token",
          "type": "address"
        }
      ],
      "name": "withdrawAllToken",
      "outputs": [],
      "stateMutability": "nonpayable",
      "type": "function"
    },
    {
      "inputs": [
        {
          "internalType": "address",
          "name": "token",
          "type": "address"
        },
        {
          "internalType": "uint256",
          "name": "amt",
          "type": "uint256"
        }
      ],
      "name": "withdrawToken",
      "outputs": [],
      "stateMutability": "nonpayable",
      "type": "function"
    }
  ],
  "transactionHash": "0x2f40f31e37e69ee1c9ab6747800c9a21003afe1cc75e2efa60e0ceb5e2cb4009",
  "args": [
    "0xF1E669a7481d30F225622b6BE0e79bB5fD339336",
    "100"
  ],
  "numDeployments": 1,
  "solcInputHash": "9c1463f2520861d14f8850777a70d981",
  "bytecode": "0x60806040523480156200001157600080fd5b5060405162001e2438038062001e248339818101604052810190620000379190620002e4565b620000576200004b620000b160201b60201c565b620000b960201b60201c565b81600160006101000a81548173ffffffffffffffffffffffffffffffffffffffff021916908373ffffffffffffffffffffffffffffffffffffffff160217905550620000a9816200017d60201b60201c565b5050620003ae565b600033905090565b60008060009054906101000a900473ffffffffffffffffffffffffffffffffffffffff169050816000806101000a81548173ffffffffffffffffffffffffffffffffffffffff021916908373ffffffffffffffffffffffffffffffffffffffff1602179055508173ffffffffffffffffffffffffffffffffffffffff168173ffffffffffffffffffffffffffffffffffffffff167f8be0079c531659141344cd1fd0a4f28419497f9722a3daafe3b4186f6b6457e060405160405180910390a35050565b6200018d620000b160201b60201c565b73ffffffffffffffffffffffffffffffffffffffff16620001b36200021660201b60201c565b73ffffffffffffffffffffffffffffffffffffffff16146200020c576040517f08c379a000000000000000000000000000000000000000000000000000000000815260040162000203906200038c565b60405180910390fd5b8060028190555050565b60008060009054906101000a900473ffffffffffffffffffffffffffffffffffffffff16905090565b600080fd5b600073ffffffffffffffffffffffffffffffffffffffff82169050919050565b6000620002718262000244565b9050919050565b620002838162000264565b81146200028f57600080fd5b50565b600081519050620002a38162000278565b92915050565b6000819050919050565b620002be81620002a9565b8114620002ca57600080fd5b50565b600081519050620002de81620002b3565b92915050565b60008060408385031215620002fe57620002fd6200023f565b5b60006200030e8582860162000292565b92505060206200032185828601620002cd565b9150509250929050565b600082825260208201905092915050565b7f4f776e61626c653a2063616c6c6572206973206e6f7420746865206f776e6572600082015250565b6000620003746020836200032b565b915062000381826200033c565b602082019050919050565b60006020820190508181036000830152620003a78162000365565b9050919050565b611a6680620003be6000396000f3fe608060405234801561001057600080fd5b50600436106100ea5760003560e01c80635610e5c41161008c5780638da5cb5b116100665780638da5cb5b146101ff5780639e281a981461021d578063ae4dd0fc14610239578063f2fde38b14610255576100ea565b80635610e5c4146101bb578063715018a6146101d957806373ffb854146101e3576100ea565b80633eed0b14116100c85780633eed0b141461015957806341d4a1ab14610175578063506353941461019357806354c5b6961461019d576100ea565b8063158cb274146100ef57806315d2a7b91461010d5780631d94f3e91461013d575b600080fd5b6100f7610271565b6040516101049190610fb9565b60405180910390f35b6101276004803603810190610122919061103c565b610277565b6040516101349190610fb9565b60405180910390f35b61015760048036038101906101529190611124565b61028f565b005b610173600480360381019061016e91906111d1565b6104a1565b005b61017d610527565b60405161018a919061125d565b60405180910390f35b61019b61054d565b005b6101a5610773565b6040516101b29190610fb9565b60405180910390f35b6101c3610779565b6040516101d09190611299565b60405180910390f35b6101e161079f565b005b6101fd60048036038101906101f8919061103c565b610827565b005b6102076108e7565b60405161021491906112c3565b60405180910390f35b610237600480360381019061023291906112de565b610910565b005b610253600480360381019061024e919061103c565b6109c2565b005b61026f600480360381019061026a919061103c565b610ad9565b005b60035481565b60056020528060005260406000206000915090505481565b610297610bd1565b73ffffffffffffffffffffffffffffffffffffffff166102b56108e7565b73ffffffffffffffffffffffffffffffffffffffff161461030b576040517f08c379a00000000000000000000000000000000000000000000000000000000081526004016103029061137b565b60405180910390fd5b818190508484905014610353576040517f08c379a000000000000000000000000000000000000000000000000000000000815260040161034a906113e7565b60405180910390fd5b60005b8484905081101561049a5760025483838381811061037757610376611407565b5b9050602002013511156103bf576040517f08c379a00000000000000000000000000000000000000000000000000000000081526004016103b6906114a8565b60405180910390fd5b8282828181106103d2576103d1611407565b5b90506020020135600560008787858181106103f0576103ef611407565b5b9050602002016020810190610405919061103c565b73ffffffffffffffffffffffffffffffffffffffff1673ffffffffffffffffffffffffffffffffffffffff168152602001908152602001600020600082825461044e91906114f7565b9250508190555082828281811061046857610467611407565b5b905060200201356003600082825461048091906114f7565b9250508190555080806104929061154d565b915050610356565b5050505050565b6104a9610bd1565b73ffffffffffffffffffffffffffffffffffffffff166104c76108e7565b73ffffffffffffffffffffffffffffffffffffffff161461051d576040517f08c379a00000000000000000000000000000000000000000000000000000000081526004016105149061137b565b60405180910390fd5b8060028190555050565b600160009054906101000a900473ffffffffffffffffffffffffffffffffffffffff1681565b6000600560003373ffffffffffffffffffffffffffffffffffffffff1673ffffffffffffffffffffffffffffffffffffffff1681526020019081526020016000205414156105d0576040517f08c379a00000000000000000000000000000000000000000000000000000000081526004016105c7906115e2565b60405180910390fd5b6000600560003373ffffffffffffffffffffffffffffffffffffffff1673ffffffffffffffffffffffffffffffffffffffff1681526020019081526020016000205490506000600560003373ffffffffffffffffffffffffffffffffffffffff1673ffffffffffffffffffffffffffffffffffffffff16815260200190815260200160002081905550806003600082825461066b9190611602565b925050819055506106e1600460009054906101000a900473ffffffffffffffffffffffffffffffffffffffff1682600160009054906101000a900473ffffffffffffffffffffffffffffffffffffffff1673ffffffffffffffffffffffffffffffffffffffff16610bd99092919063ffffffff16565b600460009054906101000a900473ffffffffffffffffffffffffffffffffffffffff1673ffffffffffffffffffffffffffffffffffffffff1663fca3fa7f33836040518363ffffffff1660e01b815260040161073e929190611636565b600060405180830381600087803b15801561075857600080fd5b505af115801561076c573d6000803e3d6000fd5b5050505050565b60025481565b600460009054906101000a900473ffffffffffffffffffffffffffffffffffffffff1681565b6107a7610bd1565b73ffffffffffffffffffffffffffffffffffffffff166107c56108e7565b73ffffffffffffffffffffffffffffffffffffffff161461081b576040517f08c379a00000000000000000000000000000000000000000000000000000000081526004016108129061137b565b60405180910390fd5b6108256000610c5f565b565b61082f610bd1565b73ffffffffffffffffffffffffffffffffffffffff1661084d6108e7565b73ffffffffffffffffffffffffffffffffffffffff16146108a3576040517f08c379a000000000000000000000000000000000000000000000000000000000815260040161089a9061137b565b60405180910390fd5b80600460006101000a81548173ffffffffffffffffffffffffffffffffffffffff021916908373ffffffffffffffffffffffffffffffffffffffff16021790555050565b60008060009054906101000a900473ffffffffffffffffffffffffffffffffffffffff16905090565b610918610bd1565b73ffffffffffffffffffffffffffffffffffffffff166109366108e7565b73ffffffffffffffffffffffffffffffffffffffff161461098c576040517f08c379a00000000000000000000000000000000000000000000000000000000081526004016109839061137b565b60405180910390fd5b6109be6109976108e7565b828473ffffffffffffffffffffffffffffffffffffffff16610bd99092919063ffffffff16565b5050565b6109ca610bd1565b73ffffffffffffffffffffffffffffffffffffffff166109e86108e7565b73ffffffffffffffffffffffffffffffffffffffff1614610a3e576040517f08c379a0000000000000000000000000000000000000000000000000000000008152600401610a359061137b565b60405180910390fd5b60008173ffffffffffffffffffffffffffffffffffffffff166370a08231306040518263ffffffff1660e01b8152600401610a7991906112c3565b60206040518083038186803b158015610a9157600080fd5b505afa158015610aa5573d6000803e3d6000fd5b505050506040513d601f19601f82011682018060405250810190610ac99190611674565b9050610ad58282610910565b5050565b610ae1610bd1565b73ffffffffffffffffffffffffffffffffffffffff16610aff6108e7565b73ffffffffffffffffffffffffffffffffffffffff1614610b55576040517f08c379a0000000000000000000000000000000000000000000000000000000008152600401610b4c9061137b565b60405180910390fd5b600073ffffffffffffffffffffffffffffffffffffffff168173ffffffffffffffffffffffffffffffffffffffff161415610bc5576040517f08c379a0000000000000000000000000000000000000000000000000000000008152600401610bbc90611713565b60405180910390fd5b610bce81610c5f565b50565b600033905090565b610c5a8363a9059cbb60e01b8484604051602401610bf8929190611636565b604051602081830303815290604052907bffffffffffffffffffffffffffffffffffffffffffffffffffffffff19166020820180517bffffffffffffffffffffffffffffffffffffffffffffffffffffffff8381831617835250505050610d23565b505050565b60008060009054906101000a900473ffffffffffffffffffffffffffffffffffffffff169050816000806101000a81548173ffffffffffffffffffffffffffffffffffffffff021916908373ffffffffffffffffffffffffffffffffffffffff1602179055508173ffffffffffffffffffffffffffffffffffffffff168173ffffffffffffffffffffffffffffffffffffffff167f8be0079c531659141344cd1fd0a4f28419497f9722a3daafe3b4186f6b6457e060405160405180910390a35050565b6000610d85826040518060400160405280602081526020017f5361666545524332303a206c6f772d6c6576656c2063616c6c206661696c65648152508573ffffffffffffffffffffffffffffffffffffffff16610dea9092919063ffffffff16565b9050600081511115610de55780806020019051810190610da5919061176b565b610de4576040517f08c379a0000000000000000000000000000000000000000000000000000000008152600401610ddb9061180a565b60405180910390fd5b5b505050565b6060610df98484600085610e02565b90509392505050565b606082471015610e47576040517f08c379a0000000000000000000000000000000000000000000000000000000008152600401610e3e9061189c565b60405180910390fd5b610e5085610f16565b610e8f576040517f08c379a0000000000000000000000000000000000000000000000000000000008152600401610e8690611908565b60405180910390fd5b6000808673ffffffffffffffffffffffffffffffffffffffff168587604051610eb891906119a2565b60006040518083038185875af1925050503d8060008114610ef5576040519150601f19603f3d011682016040523d82523d6000602084013e610efa565b606091505b5091509150610f0a828286610f39565b92505050949350505050565b6000808273ffffffffffffffffffffffffffffffffffffffff163b119050919050565b60608315610f4957829050610f99565b600083511115610f5c5782518084602001fd5b816040517f08c379a0000000000000000000000000000000000000000000000000000000008152600401610f909190611a0e565b60405180910390fd5b9392505050565b6000819050919050565b610fb381610fa0565b82525050565b6000602082019050610fce6000830184610faa565b92915050565b600080fd5b600080fd5b600073ffffffffffffffffffffffffffffffffffffffff82169050919050565b600061100982610fde565b9050919050565b61101981610ffe565b811461102457600080fd5b50565b60008135905061103681611010565b92915050565b60006020828403121561105257611051610fd4565b5b600061106084828501611027565b91505092915050565b600080fd5b600080fd5b600080fd5b60008083601f84011261108e5761108d611069565b5b8235905067ffffffffffffffff8111156110ab576110aa61106e565b5b6020830191508360208202830111156110c7576110c6611073565b5b9250929050565b60008083601f8401126110e4576110e3611069565b5b8235905067ffffffffffffffff8111156111015761110061106e565b5b60208301915083602082028301111561111d5761111c611073565b5b9250929050565b6000806000806040858703121561113e5761113d610fd4565b5b600085013567ffffffffffffffff81111561115c5761115b610fd9565b5b61116887828801611078565b9450945050602085013567ffffffffffffffff81111561118b5761118a610fd9565b5b611197878288016110ce565b925092505092959194509250565b6111ae81610fa0565b81146111b957600080fd5b50565b6000813590506111cb816111a5565b92915050565b6000602082840312156111e7576111e6610fd4565b5b60006111f5848285016111bc565b91505092915050565b6000819050919050565b600061122361121e61121984610fde565b6111fe565b610fde565b9050919050565b600061123582611208565b9050919050565b60006112478261122a565b9050919050565b6112578161123c565b82525050565b6000602082019050611272600083018461124e565b92915050565b60006112838261122a565b9050919050565b61129381611278565b82525050565b60006020820190506112ae600083018461128a565b92915050565b6112bd81610ffe565b82525050565b60006020820190506112d860008301846112b4565b92915050565b600080604083850312156112f5576112f4610fd4565b5b600061130385828601611027565b9250506020611314858286016111bc565b9150509250929050565b600082825260208201905092915050565b7f4f776e61626c653a2063616c6c6572206973206e6f7420746865206f776e6572600082015250565b600061136560208361131e565b91506113708261132f565b602082019050919050565b6000602082019050818103600083015261139481611358565b9050919050565b7f496e76616c696420446174613a20556e657175616c2061727261797300000000600082015250565b60006113d1601c8361131e565b91506113dc8261139b565b602082019050919050565b60006020820190508181036000830152611400816113c4565b9050919050565b7f4e487b7100000000000000000000000000000000000000000000000000000000600052603260045260246000fd5b7f426f6e757320616d6f756e742065786365656473206d6178207065726d69737360008201527f61626c6520626f6e757300000000000000000000000000000000000000000000602082015250565b6000611492602a8361131e565b915061149d82611436565b604082019050919050565b600060208201905081810360008301526114c181611485565b9050919050565b7f4e487b7100000000000000000000000000000000000000000000000000000000600052601160045260246000fd5b600061150282610fa0565b915061150d83610fa0565b9250827fffffffffffffffffffffffffffffffffffffffffffffffffffffffffffffffff03821115611542576115416114c8565b5b828201905092915050565b600061155882610fa0565b91507fffffffffffffffffffffffffffffffffffffffffffffffffffffffffffffffff82141561158b5761158a6114c8565b5b600182019050919050565b7f4e6f20626f6e757320666f722075736572000000000000000000000000000000600082015250565b60006115cc60118361131e565b91506115d782611596565b602082019050919050565b600060208201905081810360008301526115fb816115bf565b9050919050565b600061160d82610fa0565b915061161883610fa0565b92508282101561162b5761162a6114c8565b5b828203905092915050565b600060408201905061164b60008301856112b4565b6116586020830184610faa565b9392505050565b60008151905061166e816111a5565b92915050565b60006020828403121561168a57611689610fd4565b5b60006116988482850161165f565b91505092915050565b7f4f776e61626c653a206e6577206f776e657220697320746865207a65726f206160008201527f6464726573730000000000000000000000000000000000000000000000000000602082015250565b60006116fd60268361131e565b9150611708826116a1565b604082019050919050565b6000602082019050818103600083015261172c816116f0565b9050919050565b60008115159050919050565b61174881611733565b811461175357600080fd5b50565b6000815190506117658161173f565b92915050565b60006020828403121561178157611780610fd4565b5b600061178f84828501611756565b91505092915050565b7f5361666545524332303a204552433230206f7065726174696f6e20646964206e60008201527f6f74207375636365656400000000000000000000000000000000000000000000602082015250565b60006117f4602a8361131e565b91506117ff82611798565b604082019050919050565b60006020820190508181036000830152611823816117e7565b9050919050565b7f416464726573733a20696e73756666696369656e742062616c616e636520666f60008201527f722063616c6c0000000000000000000000000000000000000000000000000000602082015250565b600061188660268361131e565b91506118918261182a565b604082019050919050565b600060208201905081810360008301526118b581611879565b9050919050565b7f416464726573733a2063616c6c20746f206e6f6e2d636f6e7472616374000000600082015250565b60006118f2601d8361131e565b91506118fd826118bc565b602082019050919050565b60006020820190508181036000830152611921816118e5565b9050919050565b600081519050919050565b600081905092915050565b60005b8381101561195c578082015181840152602081019050611941565b8381111561196b576000848401525b50505050565b600061197c82611928565b6119868185611933565b935061199681856020860161193e565b80840191505092915050565b60006119ae8284611971565b915081905092915050565b600081519050919050565b6000601f19601f8301169050919050565b60006119e0826119b9565b6119ea818561131e565b93506119fa81856020860161193e565b611a03816119c4565b840191505092915050565b60006020820190508181036000830152611a2881846119d5565b90509291505056fea26469706673582212204e3ac0a340811840af912e23fb12a9b09b1447eef38f77bba918f50b6591ccbc64736f6c63430008090033",
  "devdoc": {
    "kind": "dev",
    "methods": {
      "owner()": {
        "details": "Returns the address of the current owner."
      },
      "renounceOwnership()": {
        "details": "Leaves the contract without owner. It will not be possible to call `onlyOwner` functions anymore. Can only be called by the current owner. NOTE: Renouncing ownership will leave the contract without an owner, thereby removing any functionality that is only available to the owner."
      },
      "transferOwnership(address)": {
        "details": "Transfers ownership of the contract to a new account (`newOwner`). Can only be called by the current owner."
      }
    },
    "version": 1
  },
  "userdoc": {
    "kind": "user",
    "methods": {},
    "version": 1
  },
  "storageLayout": {
    "storage": [
      {
        "astId": 7,
        "contract": "contracts/PLS_Bonus.sol:PLS_Bonus",
        "label": "_owner",
        "offset": 0,
        "slot": "0",
        "type": "t_address"
      },
      {
        "astId": 2063,
        "contract": "contracts/PLS_Bonus.sol:PLS_Bonus",
        "label": "bonusToken",
        "offset": 0,
        "slot": "1",
        "type": "t_contract(ERC20)692"
      },
      {
        "astId": 2065,
        "contract": "contracts/PLS_Bonus.sol:PLS_Bonus",
        "label": "maxBonus",
        "offset": 0,
        "slot": "2",
        "type": "t_uint256"
      },
      {
        "astId": 2067,
        "contract": "contracts/PLS_Bonus.sol:PLS_Bonus",
        "label": "tokenDebt",
        "offset": 0,
        "slot": "3",
        "type": "t_uint256"
      },
      {
        "astId": 2070,
        "contract": "contracts/PLS_Bonus.sol:PLS_Bonus",
        "label": "plsGame",
        "offset": 0,
        "slot": "4",
        "type": "t_contract(IPLSGame)2054"
      },
      {
        "astId": 2074,
        "contract": "contracts/PLS_Bonus.sol:PLS_Bonus",
        "label": "userBonus",
        "offset": 0,
        "slot": "5",
        "type": "t_mapping(t_address,t_uint256)"
      }
    ],
    "types": {
      "t_address": {
        "encoding": "inplace",
        "label": "address",
        "numberOfBytes": "20"
      },
      "t_contract(ERC20)692": {
        "encoding": "inplace",
        "label": "contract ERC20",
        "numberOfBytes": "20"
      },
      "t_contract(IPLSGame)2054": {
        "encoding": "inplace",
        "label": "contract IPLSGame",
        "numberOfBytes": "20"
      },
      "t_mapping(t_address,t_uint256)": {
        "encoding": "mapping",
        "key": "t_address",
        "label": "mapping(address => uint256)",
        "numberOfBytes": "32",
        "value": "t_uint256"
      },
      "t_uint256": {
        "encoding": "inplace",
        "label": "uint256",
        "numberOfBytes": "32"
      }
    }
  }
}