{
  "address": "0x79097bD279D56323EBCe0bfD72266be3Ed92329A",
  "abi": [
    {
      "inputs": [
        {
          "internalType": "address",
          "name": "_token",
          "type": "address"
        },
        {
          "internalType": "address",
          "name": "_plsBonus",
          "type": "address"
        }
      ],
      "stateMutability": "nonpayable",
      "type": "constructor"
    },
    {
      "anonymous": false,
      "inputs": [
        {
          "indexed": true,
          "internalType": "address",
          "name": "previousOwner",
          "type": "address"
        },
        {
          "indexed": true,
          "internalType": "address",
          "name": "newOwner",
          "type": "address"
        }
      ],
      "name": "OwnershipTransferred",
      "type": "event"
    },
    {
      "inputs": [
        {
          "internalType": "string",
          "name": "gameId",
          "type": "string"
        },
        {
          "internalType": "address",
          "name": "player1",
          "type": "address"
        },
        {
          "internalType": "address",
          "name": "player2",
          "type": "address"
        },
        {
          "internalType": "uint256",
          "name": "deposit",
          "type": "uint256"
        }
      ],
      "name": "addGame",
      "outputs": [],
      "stateMutability": "nonpayable",
      "type": "function"
    },
    {
      "inputs": [
        {
          "internalType": "address",
          "name": "user",
          "type": "address"
        },
        {
          "internalType": "uint256",
          "name": "amt",
          "type": "uint256"
        }
      ],
      "name": "depositBonusForUser",
      "outputs": [],
      "stateMutability": "nonpayable",
      "type": "function"
    },
    {
      "inputs": [
        {
          "internalType": "uint256",
          "name": "amt",
          "type": "uint256"
        }
      ],
      "name": "depositToken",
      "outputs": [],
      "stateMutability": "nonpayable",
      "type": "function"
    },
    {
      "inputs": [],
      "name": "feeWallet",
      "outputs": [
        {
          "internalType": "address",
          "name": "",
          "type": "address"
        }
      ],
      "stateMutability": "view",
      "type": "function"
    },
    {
      "inputs": [
        {
          "internalType": "string",
          "name": "",
          "type": "string"
        }
      ],
      "name": "gameExists",
      "outputs": [
        {
          "internalType": "bool",
          "name": "",
          "type": "bool"
        }
      ],
      "stateMutability": "view",
      "type": "function"
    },
    {
      "inputs": [
        {
          "internalType": "string",
          "name": "",
          "type": "string"
        }
      ],
      "name": "games",
      "outputs": [
        {
          "internalType": "string",
          "name": "gameId",
          "type": "string"
        },
        {
          "internalType": "address",
          "name": "player1",
          "type": "address"
        },
        {
          "internalType": "address",
          "name": "player2",
          "type": "address"
        },
        {
          "internalType": "address",
          "name": "winner",
          "type": "address"
        },
        {
          "internalType": "uint256",
          "name": "deposit",
          "type": "uint256"
        },
        {
          "internalType": "uint256",
          "name": "platFee",
          "type": "uint256"
        },
        {
          "internalType": "enum PLSGame.Status",
          "name": "status",
          "type": "uint8"
        }
      ],
      "stateMutability": "view",
      "type": "function"
    },
    {
      "inputs": [
        {
          "internalType": "string",
          "name": "gameId",
          "type": "string"
        },
        {
          "internalType": "address",
          "name": "winner",
          "type": "address"
        }
      ],
      "name": "markGameComplete",
      "outputs": [],
      "stateMutability": "nonpayable",
      "type": "function"
    },
    {
      "inputs": [
        {
          "internalType": "string",
          "name": "gameId",
          "type": "string"
        }
      ],
      "name": "markGameForMutualQuit",
      "outputs": [],
      "stateMutability": "nonpayable",
      "type": "function"
    },
    {
      "inputs": [],
      "name": "owner",
      "outputs": [
        {
          "internalType": "address",
          "name": "",
          "type": "address"
        }
      ],
      "stateMutability": "view",
      "type": "function"
    },
    {
      "inputs": [],
      "name": "platFee",
      "outputs": [
        {
          "internalType": "uint256",
          "name": "",
          "type": "uint256"
        }
      ],
      "stateMutability": "view",
      "type": "function"
    },
    {
      "inputs": [],
      "name": "plsBonus",
      "outputs": [
        {
          "internalType": "address",
          "name": "",
          "type": "address"
        }
      ],
      "stateMutability": "view",
      "type": "function"
    },
    {
      "inputs": [
        {
          "internalType": "string",
          "name": "",
          "type": "string"
        }
      ],
      "name": "refundClaimed",
      "outputs": [
        {
          "internalType": "address",
          "name": "",
          "type": "address"
        }
      ],
      "stateMutability": "view",
      "type": "function"
    },
    {
      "inputs": [],
      "name": "renounceOwnership",
      "outputs": [],
      "stateMutability": "nonpayable",
      "type": "function"
    },
    {
      "inputs": [
        {
          "internalType": "address",
          "name": "_plsBonus",
          "type": "address"
        }
      ],
      "name": "setBonusAddress",
      "outputs": [],
      "stateMutability": "nonpayable",
      "type": "function"
    },
    {
      "inputs": [
        {
          "internalType": "address",
          "name": "_feeWallet",
          "type": "address"
        }
      ],
      "name": "setFeeWallet",
      "outputs": [],
      "stateMutability": "nonpayable",
      "type": "function"
    },
    {
      "inputs": [
        {
          "internalType": "uint256",
          "name": "_platFee",
          "type": "uint256"
        }
      ],
      "name": "setPlatfee",
      "outputs": [],
      "stateMutability": "nonpayable",
      "type": "function"
    },
    {
      "inputs": [],
      "name": "token",
      "outputs": [
        {
          "internalType": "contract ERC20",
          "name": "",
          "type": "address"
        }
      ],
      "stateMutability": "view",
      "type": "function"
    },
    {
      "inputs": [
        {
          "internalType": "address",
          "name": "newOwner",
          "type": "address"
        }
      ],
      "name": "transferOwnership",
      "outputs": [],
      "stateMutability": "nonpayable",
      "type": "function"
    },
    {
      "inputs": [
        {
          "internalType": "address",
          "name": "",
          "type": "address"
        }
      ],
      "name": "wallet",
      "outputs": [
        {
          "internalType": "uint256",
          "name": "",
          "type": "uint256"
        }
      ],
      "stateMutability": "view",
      "type": "function"
    },
    {
      "inputs": [
        {
          "internalType": "uint256",
          "name": "amt",
          "type": "uint256"
        }
      ],
      "name": "withdrawToken",
      "outputs": [],
      "stateMutability": "nonpayable",
      "type": "function"
    }
  ],
  "transactionHash": "0xa5f70c43c855ee8a21d9aee349e097824e5b2f91c30ff5a1272ae2cbcea243d8",
  "args": [
    "0xF1E669a7481d30F225622b6BE0e79bB5fD339336",
    "0xA9132437D0d02A07d61c975ed6bA1B6a8D30558B"
  ],
  "numDeployments": 1,
  "solcInputHash": "9c1463f2520861d14f8850777a70d981",
  "bytecode": "0x60806040526107d06001553480156200001757600080fd5b50604051620031173803806200311783398181016040528101906200003d91906200025e565b6200005d620000516200012860201b60201c565b6200013060201b60201c565b81600260006101000a81548173ffffffffffffffffffffffffffffffffffffffff021916908373ffffffffffffffffffffffffffffffffffffffff16021790555033600360006101000a81548173ffffffffffffffffffffffffffffffffffffffff021916908373ffffffffffffffffffffffffffffffffffffffff16021790555080600460006101000a81548173ffffffffffffffffffffffffffffffffffffffff021916908373ffffffffffffffffffffffffffffffffffffffff1602179055505050620002a5565b600033905090565b60008060009054906101000a900473ffffffffffffffffffffffffffffffffffffffff169050816000806101000a81548173ffffffffffffffffffffffffffffffffffffffff021916908373ffffffffffffffffffffffffffffffffffffffff1602179055508173ffffffffffffffffffffffffffffffffffffffff168173ffffffffffffffffffffffffffffffffffffffff167f8be0079c531659141344cd1fd0a4f28419497f9722a3daafe3b4186f6b6457e060405160405180910390a35050565b600080fd5b600073ffffffffffffffffffffffffffffffffffffffff82169050919050565b60006200022682620001f9565b9050919050565b620002388162000219565b81146200024457600080fd5b50565b60008151905062000258816200022d565b92915050565b60008060408385031215620002785762000277620001f4565b5b6000620002888582860162000247565b92505060206200029b8582860162000247565b9150509250929050565b612e6280620002b56000396000f3fe608060405234801561001057600080fd5b506004361061012c5760003560e01c80638da5cb5b116100ad578063f2373a5511610071578063f2373a551461031d578063f25f4b561461033b578063f2fde38b14610359578063fc0c546a14610375578063fca3fa7f146103935761012c565b80638da5cb5b1461027b57806390d49b9d14610299578063a56cc439146102b5578063c97f8363146102e5578063d1bb40a7146103015761012c565b80636215be77116100f45780636215be77146101d35780636400619e146101ef5780636d20931a1461021f578063715018a6146102555780638d4cc5451461025f5761012c565b80633c07d9ef146101315780633f15670c146101615780634558e08d1461017d5780634e014fa51461019957806350baa622146101b7575b600080fd5b61014b60048036038101906101469190611ef5565b6103af565b6040516101589190611f7f565b60405180910390f35b61017b6004803603810190610176919061205c565b6103f8565b005b610197600480360381019061019291906120e4565b6108fa565b005b6101a1610bf1565b6040516101ae9190612140565b60405180910390f35b6101d160048036038101906101cc919061215b565b610bf7565b005b6101ed60048036038101906101e8919061215b565b610d1f565b005b61020960048036038101906102049190611ef5565b610dc7565b60405161021691906121a3565b60405180910390f35b61023960048036038101906102349190611ef5565b610dfd565b60405161024c97969594939291906122bd565b60405180910390f35b61025d610f4a565b005b6102796004803603810190610274919061215b565b610fd2565b005b610283611058565b6040516102909190611f7f565b60405180910390f35b6102b360048036038101906102ae9190612333565b611081565b005b6102cf60048036038101906102ca9190612333565b611141565b6040516102dc9190612140565b60405180910390f35b6102ff60048036038101906102fa9190612333565b611159565b005b61031b60048036038101906103169190612360565b611219565b005b61032561164c565b6040516103329190611f7f565b60405180910390f35b610343611672565b6040516103509190611f7f565b60405180910390f35b610373600480360381019061036e9190612333565b611698565b005b61037d611790565b60405161038a919061241f565b60405180910390f35b6103ad60048036038101906103a8919061243a565b6117b6565b005b6008818051602081018201805184825260208301602085012081835280955050505050506000915054906101000a900473ffffffffffffffffffffffffffffffffffffffff1681565b6104006118a0565b73ffffffffffffffffffffffffffffffffffffffff1661041e611058565b73ffffffffffffffffffffffffffffffffffffffff1614610474576040517f08c379a000000000000000000000000000000000000000000000000000000000815260040161046b906124c6565b60405180910390fd5b60078585604051610486929190612516565b908152602001604051809103902060009054906101000a900460ff16156104e2576040517f08c379a00000000000000000000000000000000000000000000000000000000081526004016104d99061257b565b60405180910390fd5b600560008473ffffffffffffffffffffffffffffffffffffffff1673ffffffffffffffffffffffffffffffffffffffff16815260200190815260200160002054811115610564576040517f08c379a000000000000000000000000000000000000000000000000000000000815260040161055b906125e7565b60405180910390fd5b600560008373ffffffffffffffffffffffffffffffffffffffff1673ffffffffffffffffffffffffffffffffffffffff168152602001908152602001600020548111156105e6576040517f08c379a00000000000000000000000000000000000000000000000000000000081526004016105dd90612653565b60405180910390fd5b80600560008573ffffffffffffffffffffffffffffffffffffffff1673ffffffffffffffffffffffffffffffffffffffff168152602001908152602001600020600082825461063591906126a2565b9250508190555080600560008473ffffffffffffffffffffffffffffffffffffffff1673ffffffffffffffffffffffffffffffffffffffff168152602001908152602001600020600082825461068b91906126a2565b925050819055506001600786866040516106a6929190612516565b908152602001604051809103902060006101000a81548160ff0219169083151502179055506040518060e0016040528086868080601f016020809104026020016040519081016040528093929190818152602001838380828437600081840152601f19601f8201169050808301925050505050505081526020018473ffffffffffffffffffffffffffffffffffffffff1681526020018373ffffffffffffffffffffffffffffffffffffffff168152602001600073ffffffffffffffffffffffffffffffffffffffff16815260200182815260200160015481526020016000600281111561079757610796612246565b5b815250600686866040516107ac929190612516565b908152602001604051809103902060008201518160000190805190602001906107d6929190611cf8565b5060208201518160010160006101000a81548173ffffffffffffffffffffffffffffffffffffffff021916908373ffffffffffffffffffffffffffffffffffffffff16021790555060408201518160020160006101000a81548173ffffffffffffffffffffffffffffffffffffffff021916908373ffffffffffffffffffffffffffffffffffffffff16021790555060608201518160030160006101000a81548173ffffffffffffffffffffffffffffffffffffffff021916908373ffffffffffffffffffffffffffffffffffffffff1602179055506080820151816004015560a0820151816005015560c08201518160060160006101000a81548160ff021916908360028111156108eb576108ea612246565b5b02179055509050505050505050565b6109026118a0565b73ffffffffffffffffffffffffffffffffffffffff16610920611058565b73ffffffffffffffffffffffffffffffffffffffff1614610976576040517f08c379a000000000000000000000000000000000000000000000000000000000815260040161096d906124c6565b60405180910390fd5b81818080601f016020809104026020016040519081016040528093929190818152602001838380828437600081840152601f19601f820116905080830192505050505050506007816040516109cb9190612707565b908152602001604051809103902060009054906101000a900460ff16610a26576040517f08c379a0000000000000000000000000000000000000000000000000000000008152600401610a1d9061276a565b60405180910390fd5b600060068484604051610a3a929190612516565b9081526020016040518091039020905060006002811115610a5e57610a5d612246565b5b8160060160009054906101000a900460ff166002811115610a8257610a81612246565b5b14610ac2576040517f08c379a0000000000000000000000000000000000000000000000000000000008152600401610ab9906127d6565b60405180910390fd5b60028160060160006101000a81548160ff02191690836002811115610aea57610ae9612246565b5b02179055508060040154600560008360010160009054906101000a900473ffffffffffffffffffffffffffffffffffffffff1673ffffffffffffffffffffffffffffffffffffffff1673ffffffffffffffffffffffffffffffffffffffff1681526020019081526020016000206000828254610b6691906127f6565b925050819055508060040154600560008360020160009054906101000a900473ffffffffffffffffffffffffffffffffffffffff1673ffffffffffffffffffffffffffffffffffffffff1673ffffffffffffffffffffffffffffffffffffffff1681526020019081526020016000206000828254610be491906127f6565b9250508190555050505050565b60015481565b600560003373ffffffffffffffffffffffffffffffffffffffff1673ffffffffffffffffffffffffffffffffffffffff16815260200190815260200160002054811115610c79576040517f08c379a0000000000000000000000000000000000000000000000000000000008152600401610c7090612898565b60405180910390fd5b80600560003373ffffffffffffffffffffffffffffffffffffffff1673ffffffffffffffffffffffffffffffffffffffff1681526020019081526020016000206000828254610cc891906126a2565b92505081905550610d1c3382600260009054906101000a900473ffffffffffffffffffffffffffffffffffffffff1673ffffffffffffffffffffffffffffffffffffffff166118a89092919063ffffffff16565b50565b80600560003373ffffffffffffffffffffffffffffffffffffffff1673ffffffffffffffffffffffffffffffffffffffff1681526020019081526020016000206000828254610d6e91906127f6565b92505081905550610dc4333083600260009054906101000a900473ffffffffffffffffffffffffffffffffffffffff1673ffffffffffffffffffffffffffffffffffffffff1661192e909392919063ffffffff16565b50565b6007818051602081018201805184825260208301602085012081835280955050505050506000915054906101000a900460ff1681565b600681805160208101820180518482526020830160208501208183528095505050505050600091509050806000018054610e36906128e7565b80601f0160208091040260200160405190810160405280929190818152602001828054610e62906128e7565b8015610eaf5780601f10610e8457610100808354040283529160200191610eaf565b820191906000526020600020905b815481529060010190602001808311610e9257829003601f168201915b5050505050908060010160009054906101000a900473ffffffffffffffffffffffffffffffffffffffff16908060020160009054906101000a900473ffffffffffffffffffffffffffffffffffffffff16908060030160009054906101000a900473ffffffffffffffffffffffffffffffffffffffff16908060040154908060050154908060060160009054906101000a900460ff16905087565b610f526118a0565b73ffffffffffffffffffffffffffffffffffffffff16610f70611058565b73ffffffffffffffffffffffffffffffffffffffff1614610fc6576040517f08c379a0000000000000000000000000000000000000000000000000000000008152600401610fbd906124c6565b60405180910390fd5b610fd060006119b7565b565b610fda6118a0565b73ffffffffffffffffffffffffffffffffffffffff16610ff8611058565b73ffffffffffffffffffffffffffffffffffffffff161461104e576040517f08c379a0000000000000000000000000000000000000000000000000000000008152600401611045906124c6565b60405180910390fd5b8060018190555050565b60008060009054906101000a900473ffffffffffffffffffffffffffffffffffffffff16905090565b6110896118a0565b73ffffffffffffffffffffffffffffffffffffffff166110a7611058565b73ffffffffffffffffffffffffffffffffffffffff16146110fd576040517f08c379a00000000000000000000000000000000000000000000000000000000081526004016110f4906124c6565b60405180910390fd5b80600360006101000a81548173ffffffffffffffffffffffffffffffffffffffff021916908373ffffffffffffffffffffffffffffffffffffffff16021790555050565b60056020528060005260406000206000915090505481565b6111616118a0565b73ffffffffffffffffffffffffffffffffffffffff1661117f611058565b73ffffffffffffffffffffffffffffffffffffffff16146111d5576040517f08c379a00000000000000000000000000000000000000000000000000000000081526004016111cc906124c6565b60405180910390fd5b80600460006101000a81548173ffffffffffffffffffffffffffffffffffffffff021916908373ffffffffffffffffffffffffffffffffffffffff16021790555050565b6112216118a0565b73ffffffffffffffffffffffffffffffffffffffff1661123f611058565b73ffffffffffffffffffffffffffffffffffffffff1614611295576040517f08c379a000000000000000000000000000000000000000000000000000000000815260040161128c906124c6565b60405180910390fd5b82828080601f016020809104026020016040519081016040528093929190818152602001838380828437600081840152601f19601f820116905080830192505050505050506007816040516112ea9190612707565b908152602001604051809103902060009054906101000a900460ff16611345576040517f08c379a000000000000000000000000000000000000000000000000000000000815260040161133c9061276a565b60405180910390fd5b600060068585604051611359929190612516565b908152602001604051809103902090506000600281111561137d5761137c612246565b5b8160060160009054906101000a900460ff1660028111156113a1576113a0612246565b5b146113e1576040517f08c379a00000000000000000000000000000000000000000000000000000000081526004016113d8906127d6565b60405180910390fd5b8060010160009054906101000a900473ffffffffffffffffffffffffffffffffffffffff1673ffffffffffffffffffffffffffffffffffffffff168373ffffffffffffffffffffffffffffffffffffffff16148061148e57508060020160009054906101000a900473ffffffffffffffffffffffffffffffffffffffff1673ffffffffffffffffffffffffffffffffffffffff168373ffffffffffffffffffffffffffffffffffffffff16145b6114cd576040517f08c379a00000000000000000000000000000000000000000000000000000000081526004016114c49061298b565b60405180910390fd5b60018160060160006101000a81548160ff021916908360028111156114f5576114f4612246565b5b0217905550828160030160006101000a81548173ffffffffffffffffffffffffffffffffffffffff021916908373ffffffffffffffffffffffffffffffffffffffff16021790555060008160040154600261155091906129ab565b9050600061271083600501548361156791906129ab565b6115719190612a34565b9050808261157f91906126a2565b600560008773ffffffffffffffffffffffffffffffffffffffff1673ffffffffffffffffffffffffffffffffffffffff16815260200190815260200160002060008282546115cd91906127f6565b92505081905550611643600360009054906101000a900473ffffffffffffffffffffffffffffffffffffffff1682600260009054906101000a900473ffffffffffffffffffffffffffffffffffffffff1673ffffffffffffffffffffffffffffffffffffffff166118a89092919063ffffffff16565b50505050505050565b600460009054906101000a900473ffffffffffffffffffffffffffffffffffffffff1681565b600360009054906101000a900473ffffffffffffffffffffffffffffffffffffffff1681565b6116a06118a0565b73ffffffffffffffffffffffffffffffffffffffff166116be611058565b73ffffffffffffffffffffffffffffffffffffffff1614611714576040517f08c379a000000000000000000000000000000000000000000000000000000000815260040161170b906124c6565b60405180910390fd5b600073ffffffffffffffffffffffffffffffffffffffff168173ffffffffffffffffffffffffffffffffffffffff161415611784576040517f08c379a000000000000000000000000000000000000000000000000000000000815260040161177b90612ad7565b60405180910390fd5b61178d816119b7565b50565b600260009054906101000a900473ffffffffffffffffffffffffffffffffffffffff1681565b600460009054906101000a900473ffffffffffffffffffffffffffffffffffffffff1673ffffffffffffffffffffffffffffffffffffffff163373ffffffffffffffffffffffffffffffffffffffff1614611846576040517f08c379a000000000000000000000000000000000000000000000000000000000815260040161183d90612b43565b60405180910390fd5b80600560008473ffffffffffffffffffffffffffffffffffffffff1673ffffffffffffffffffffffffffffffffffffffff168152602001908152602001600020600082825461189591906127f6565b925050819055505050565b600033905090565b6119298363a9059cbb60e01b84846040516024016118c7929190612b63565b604051602081830303815290604052907bffffffffffffffffffffffffffffffffffffffffffffffffffffffff19166020820180517bffffffffffffffffffffffffffffffffffffffffffffffffffffffff8381831617835250505050611a7b565b505050565b6119b1846323b872dd60e01b85858560405160240161194f93929190612b8c565b604051602081830303815290604052907bffffffffffffffffffffffffffffffffffffffffffffffffffffffff19166020820180517bffffffffffffffffffffffffffffffffffffffffffffffffffffffff8381831617835250505050611a7b565b50505050565b60008060009054906101000a900473ffffffffffffffffffffffffffffffffffffffff169050816000806101000a81548173ffffffffffffffffffffffffffffffffffffffff021916908373ffffffffffffffffffffffffffffffffffffffff1602179055508173ffffffffffffffffffffffffffffffffffffffff168173ffffffffffffffffffffffffffffffffffffffff167f8be0079c531659141344cd1fd0a4f28419497f9722a3daafe3b4186f6b6457e060405160405180910390a35050565b6000611add826040518060400160405280602081526020017f5361666545524332303a206c6f772d6c6576656c2063616c6c206661696c65648152508573ffffffffffffffffffffffffffffffffffffffff16611b429092919063ffffffff16565b9050600081511115611b3d5780806020019051810190611afd9190612bef565b611b3c576040517f08c379a0000000000000000000000000000000000000000000000000000000008152600401611b3390612c8e565b60405180910390fd5b5b505050565b6060611b518484600085611b5a565b90509392505050565b606082471015611b9f576040517f08c379a0000000000000000000000000000000000000000000000000000000008152600401611b9690612d20565b60405180910390fd5b611ba885611c6e565b611be7576040517f08c379a0000000000000000000000000000000000000000000000000000000008152600401611bde90612d8c565b60405180910390fd5b6000808673ffffffffffffffffffffffffffffffffffffffff168587604051611c109190612df3565b60006040518083038185875af1925050503d8060008114611c4d576040519150601f19603f3d011682016040523d82523d6000602084013e611c52565b606091505b5091509150611c62828286611c91565b92505050949350505050565b6000808273ffffffffffffffffffffffffffffffffffffffff163b119050919050565b60608315611ca157829050611cf1565b600083511115611cb45782518084602001fd5b816040517f08c379a0000000000000000000000000000000000000000000000000000000008152600401611ce89190612e0a565b60405180910390fd5b9392505050565b828054611d04906128e7565b90600052602060002090601f016020900481019282611d265760008555611d6d565b82601f10611d3f57805160ff1916838001178555611d6d565b82800160010185558215611d6d579182015b82811115611d6c578251825591602001919060010190611d51565b5b509050611d7a9190611d7e565b5090565b5b80821115611d97576000816000905550600101611d7f565b5090565b6000604051905090565b600080fd5b600080fd5b600080fd5b600080fd5b6000601f19601f8301169050919050565b7f4e487b7100000000000000000000000000000000000000000000000000000000600052604160045260246000fd5b611e0282611db9565b810181811067ffffffffffffffff82111715611e2157611e20611dca565b5b80604052505050565b6000611e34611d9b565b9050611e408282611df9565b919050565b600067ffffffffffffffff821115611e6057611e5f611dca565b5b611e6982611db9565b9050602081019050919050565b82818337600083830152505050565b6000611e98611e9384611e45565b611e2a565b905082815260208101848484011115611eb457611eb3611db4565b5b611ebf848285611e76565b509392505050565b600082601f830112611edc57611edb611daf565b5b8135611eec848260208601611e85565b91505092915050565b600060208284031215611f0b57611f0a611da5565b5b600082013567ffffffffffffffff811115611f2957611f28611daa565b5b611f3584828501611ec7565b91505092915050565b600073ffffffffffffffffffffffffffffffffffffffff82169050919050565b6000611f6982611f3e565b9050919050565b611f7981611f5e565b82525050565b6000602082019050611f946000830184611f70565b92915050565b600080fd5b600080fd5b60008083601f840112611fba57611fb9611daf565b5b8235905067ffffffffffffffff811115611fd757611fd6611f9a565b5b602083019150836001820283011115611ff357611ff2611f9f565b5b9250929050565b61200381611f5e565b811461200e57600080fd5b50565b60008135905061202081611ffa565b92915050565b6000819050919050565b61203981612026565b811461204457600080fd5b50565b60008135905061205681612030565b92915050565b60008060008060006080868803121561207857612077611da5565b5b600086013567ffffffffffffffff81111561209657612095611daa565b5b6120a288828901611fa4565b955095505060206120b588828901612011565b93505060406120c688828901612011565b92505060606120d788828901612047565b9150509295509295909350565b600080602083850312156120fb576120fa611da5565b5b600083013567ffffffffffffffff81111561211957612118611daa565b5b61212585828601611fa4565b92509250509250929050565b61213a81612026565b82525050565b60006020820190506121556000830184612131565b92915050565b60006020828403121561217157612170611da5565b5b600061217f84828501612047565b91505092915050565b60008115159050919050565b61219d81612188565b82525050565b60006020820190506121b86000830184612194565b92915050565b600081519050919050565b600082825260208201905092915050565b60005b838110156121f85780820151818401526020810190506121dd565b83811115612207576000848401525b50505050565b6000612218826121be565b61222281856121c9565b93506122328185602086016121da565b61223b81611db9565b840191505092915050565b7f4e487b7100000000000000000000000000000000000000000000000000000000600052602160045260246000fd5b6003811061228657612285612246565b5b50565b600081905061229782612275565b919050565b60006122a782612289565b9050919050565b6122b78161229c565b82525050565b600060e08201905081810360008301526122d7818a61220d565b90506122e66020830189611f70565b6122f36040830188611f70565b6123006060830187611f70565b61230d6080830186612131565b61231a60a0830185612131565b61232760c08301846122ae565b98975050505050505050565b60006020828403121561234957612348611da5565b5b600061235784828501612011565b91505092915050565b60008060006040848603121561237957612378611da5565b5b600084013567ffffffffffffffff81111561239757612396611daa565b5b6123a386828701611fa4565b935093505060206123b686828701612011565b9150509250925092565b6000819050919050565b60006123e56123e06123db84611f3e565b6123c0565b611f3e565b9050919050565b60006123f7826123ca565b9050919050565b6000612409826123ec565b9050919050565b612419816123fe565b82525050565b60006020820190506124346000830184612410565b92915050565b6000806040838503121561245157612450611da5565b5b600061245f85828601612011565b925050602061247085828601612047565b9150509250929050565b7f4f776e61626c653a2063616c6c6572206973206e6f7420746865206f776e6572600082015250565b60006124b06020836121c9565b91506124bb8261247a565b602082019050919050565b600060208201905081810360008301526124df816124a3565b9050919050565b600081905092915050565b60006124fd83856124e6565b935061250a838584611e76565b82840190509392505050565b60006125238284866124f1565b91508190509392505050565b7f52657065617465642047616d6520494400000000000000000000000000000000600082015250565b60006125656010836121c9565b91506125708261252f565b602082019050919050565b6000602082019050818103600083015261259481612558565b9050919050565b7f496e73756666696369656e742042616c616e63653a506c617965722031000000600082015250565b60006125d1601d836121c9565b91506125dc8261259b565b602082019050919050565b60006020820190508181036000830152612600816125c4565b9050919050565b7f496e73756666696369656e742042616c616e63653a506c617965722032000000600082015250565b600061263d601d836121c9565b915061264882612607565b602082019050919050565b6000602082019050818103600083015261266c81612630565b9050919050565b7f4e487b7100000000000000000000000000000000000000000000000000000000600052601160045260246000fd5b60006126ad82612026565b91506126b883612026565b9250828210156126cb576126ca612673565b5b828203905092915050565b60006126e1826121be565b6126eb81856124e6565b93506126fb8185602086016121da565b80840191505092915050565b600061271382846126d6565b915081905092915050565b7f47616d6520646f6573206e6f7420657869737400000000000000000000000000600082015250565b60006127546013836121c9565b915061275f8261271e565b602082019050919050565b6000602082019050818103600083015261278381612747565b9050919050565b7f47616d65206e6f7420696e20696e697469616c20737461746500000000000000600082015250565b60006127c06019836121c9565b91506127cb8261278a565b602082019050919050565b600060208201905081810360008301526127ef816127b3565b9050919050565b600061280182612026565b915061280c83612026565b9250827fffffffffffffffffffffffffffffffffffffffffffffffffffffffffffffffff0382111561284157612840612673565b5b828201905092915050565b7f496e73756666696369656e742042616c616e6365000000000000000000000000600082015250565b60006128826014836121c9565b915061288d8261284c565b602082019050919050565b600060208201905081810360008301526128b181612875565b9050919050565b7f4e487b7100000000000000000000000000000000000000000000000000000000600052602260045260246000fd5b600060028204905060018216806128ff57607f821691505b60208210811415612913576129126128b8565b5b50919050565b7f57696e6e65722061646472657373206973206e6f74206120706172746963697060008201527f616e740000000000000000000000000000000000000000000000000000000000602082015250565b60006129756023836121c9565b915061298082612919565b604082019050919050565b600060208201905081810360008301526129a481612968565b9050919050565b60006129b682612026565b91506129c183612026565b9250817fffffffffffffffffffffffffffffffffffffffffffffffffffffffffffffffff04831182151516156129fa576129f9612673565b5b828202905092915050565b7f4e487b7100000000000000000000000000000000000000000000000000000000600052601260045260246000fd5b6000612a3f82612026565b9150612a4a83612026565b925082612a5a57612a59612a05565b5b828204905092915050565b7f4f776e61626c653a206e6577206f776e657220697320746865207a65726f206160008201527f6464726573730000000000000000000000000000000000000000000000000000602082015250565b6000612ac16026836121c9565b9150612acc82612a65565b604082019050919050565b60006020820190508181036000830152612af081612ab4565b9050919050565b7f43616c6c6572206e6f7420626f6e757320636f6e747261637400000000000000600082015250565b6000612b2d6019836121c9565b9150612b3882612af7565b602082019050919050565b60006020820190508181036000830152612b5c81612b20565b9050919050565b6000604082019050612b786000830185611f70565b612b856020830184612131565b9392505050565b6000606082019050612ba16000830186611f70565b612bae6020830185611f70565b612bbb6040830184612131565b949350505050565b612bcc81612188565b8114612bd757600080fd5b50565b600081519050612be981612bc3565b92915050565b600060208284031215612c0557612c04611da5565b5b6000612c1384828501612bda565b91505092915050565b7f5361666545524332303a204552433230206f7065726174696f6e20646964206e60008201527f6f74207375636365656400000000000000000000000000000000000000000000602082015250565b6000612c78602a836121c9565b9150612c8382612c1c565b604082019050919050565b60006020820190508181036000830152612ca781612c6b565b9050919050565b7f416464726573733a20696e73756666696369656e742062616c616e636520666f60008201527f722063616c6c0000000000000000000000000000000000000000000000000000602082015250565b6000612d0a6026836121c9565b9150612d1582612cae565b604082019050919050565b60006020820190508181036000830152612d3981612cfd565b9050919050565b7f416464726573733a2063616c6c20746f206e6f6e2d636f6e7472616374000000600082015250565b6000612d76601d836121c9565b9150612d8182612d40565b602082019050919050565b60006020820190508181036000830152612da581612d69565b9050919050565b600081519050919050565b600081905092915050565b6000612dcd82612dac565b612dd78185612db7565b9350612de78185602086016121da565b80840191505092915050565b6000612dff8284612dc2565b915081905092915050565b60006020820190508181036000830152612e24818461220d565b90509291505056fea264697066735822122080f4caa333024ec1964667f89fc2a3697f55728750580ef9a611390a8876fa0564736f6c63430008090033",
  "devdoc": {
    "kind": "dev",
    "methods": {
      "owner()": {
        "details": "Returns the address of the current owner."
      },
      "renounceOwnership()": {
        "details": "Leaves the contract without owner. It will not be possible to call `onlyOwner` functions anymore. Can only be called by the current owner. NOTE: Renouncing ownership will leave the contract without an owner, thereby removing any functionality that is only available to the owner."
      },
      "transferOwnership(address)": {
        "details": "Transfers ownership of the contract to a new account (`newOwner`). Can only be called by the current owner."
      }
    },
    "version": 1
  },
  "userdoc": {
    "kind": "user",
    "methods": {},
    "version": 1
  },
  "storageLayout": {
    "storage": [
      {
        "astId": 7,
        "contract": "contracts/PLSGame.sol:PLSGame",
        "label": "_owner",
        "offset": 0,
        "slot": "0",
        "type": "t_address"
      },
      {
        "astId": 1647,
        "contract": "contracts/PLSGame.sol:PLSGame",
        "label": "platFee",
        "offset": 0,
        "slot": "1",
        "type": "t_uint256"
      },
      {
        "astId": 1650,
        "contract": "contracts/PLSGame.sol:PLSGame",
        "label": "token",
        "offset": 0,
        "slot": "2",
        "type": "t_contract(ERC20)692"
      },
      {
        "astId": 1652,
        "contract": "contracts/PLSGame.sol:PLSGame",
        "label": "feeWallet",
        "offset": 0,
        "slot": "3",
        "type": "t_address"
      },
      {
        "astId": 1654,
        "contract": "contracts/PLSGame.sol:PLSGame",
        "label": "plsBonus",
        "offset": 0,
        "slot": "4",
        "type": "t_address"
      },
      {
        "astId": 1658,
        "contract": "contracts/PLSGame.sol:PLSGame",
        "label": "wallet",
        "offset": 0,
        "slot": "5",
        "type": "t_mapping(t_address,t_uint256)"
      },
      {
        "astId": 1663,
        "contract": "contracts/PLSGame.sol:PLSGame",
        "label": "games",
        "offset": 0,
        "slot": "6",
        "type": "t_mapping(t_string_memory_ptr,t_struct(Game)1644_storage)"
      },
      {
        "astId": 1667,
        "contract": "contracts/PLSGame.sol:PLSGame",
        "label": "gameExists",
        "offset": 0,
        "slot": "7",
        "type": "t_mapping(t_string_memory_ptr,t_bool)"
      },
      {
        "astId": 1671,
        "contract": "contracts/PLSGame.sol:PLSGame",
        "label": "refundClaimed",
        "offset": 0,
        "slot": "8",
        "type": "t_mapping(t_string_memory_ptr,t_address)"
      }
    ],
    "types": {
      "t_address": {
        "encoding": "inplace",
        "label": "address",
        "numberOfBytes": "20"
      },
      "t_bool": {
        "encoding": "inplace",
        "label": "bool",
        "numberOfBytes": "1"
      },
      "t_contract(ERC20)692": {
        "encoding": "inplace",
        "label": "contract ERC20",
        "numberOfBytes": "20"
      },
      "t_enum(Status)1628": {
        "encoding": "inplace",
        "label": "enum PLSGame.Status",
        "numberOfBytes": "1"
      },
      "t_mapping(t_address,t_uint256)": {
        "encoding": "mapping",
        "key": "t_address",
        "label": "mapping(address => uint256)",
        "numberOfBytes": "32",
        "value": "t_uint256"
      },
      "t_mapping(t_string_memory_ptr,t_address)": {
        "encoding": "mapping",
        "key": "t_string_memory_ptr",
        "label": "mapping(string => address)",
        "numberOfBytes": "32",
        "value": "t_address"
      },
      "t_mapping(t_string_memory_ptr,t_bool)": {
        "encoding": "mapping",
        "key": "t_string_memory_ptr",
        "label": "mapping(string => bool)",
        "numberOfBytes": "32",
        "value": "t_bool"
      },
      "t_mapping(t_string_memory_ptr,t_struct(Game)1644_storage)": {
        "encoding": "mapping",
        "key": "t_string_memory_ptr",
        "label": "mapping(string => struct PLSGame.Game)",
        "numberOfBytes": "32",
        "value": "t_struct(Game)1644_storage"
      },
      "t_string_memory_ptr": {
        "encoding": "bytes",
        "label": "string",
        "numberOfBytes": "32"
      },
      "t_string_storage": {
        "encoding": "bytes",
        "label": "string",
        "numberOfBytes": "32"
      },
      "t_struct(Game)1644_storage": {
        "encoding": "inplace",
        "label": "struct PLSGame.Game",
        "members": [
          {
            "astId": 1630,
            "contract": "contracts/PLSGame.sol:PLSGame",
            "label": "gameId",
            "offset": 0,
            "slot": "0",
            "type": "t_string_storage"
          },
          {
            "astId": 1632,
            "contract": "contracts/PLSGame.sol:PLSGame",
            "label": "player1",
            "offset": 0,
            "slot": "1",
            "type": "t_address"
          },
          {
            "astId": 1634,
            "contract": "contracts/PLSGame.sol:PLSGame",
            "label": "player2",
            "offset": 0,
            "slot": "2",
            "type": "t_address"
          },
          {
            "astId": 1636,
            "contract": "contracts/PLSGame.sol:PLSGame",
            "label": "winner",
            "offset": 0,
            "slot": "3",
            "type": "t_address"
          },
          {
            "astId": 1638,
            "contract": "contracts/PLSGame.sol:PLSGame",
            "label": "deposit",
            "offset": 0,
            "slot": "4",
            "type": "t_uint256"
          },
          {
            "astId": 1640,
            "contract": "contracts/PLSGame.sol:PLSGame",
            "label": "platFee",
            "offset": 0,
            "slot": "5",
            "type": "t_uint256"
          },
          {
            "astId": 1643,
            "contract": "contracts/PLSGame.sol:PLSGame",
            "label": "status",
            "offset": 0,
            "slot": "6",
            "type": "t_enum(Status)1628"
          }
        ],
        "numberOfBytes": "224"
      },
      "t_uint256": {
        "encoding": "inplace",
        "label": "uint256",
        "numberOfBytes": "32"
      }
    }
  }
}